:020000040000fa
:080000000002040000000000f2
:020000040000fa
:040008009e03000053
:020000040000fa
:04000c00e603000007
:020000040000fa
:040010004c0400009c
:020000040000fa
:04001400c003000025
:020000040000fa
:0400180008040000d8
:020000040000fa
:04001c002a040000b2
:020000040000fa
:040020006e0400006a
:020000040000fa
:04002400f4060000de
:020000040000fa
:04002800f4060000da
:020000040000fa
:04002c00f4060000d6
:020000040000fa
:04003000f4060000d2
:020000040000fa
:04003400dc060000e6
:020000040000fa
:04003800f4060000ca
:020000040000fa
:04003c00f4060000c6
:020000040000fa
:04004000f4060000c2
:020000040000fa
:040044009e04000016
:020000040000fa
:04004800f4060000ba
:020000040000fa
:04004c00f4060000b6
:020000040000fa
:04005000f4060000b2
:020000040000fa
:04005400360500006d
:020000040000fa
:04005800d4040000cc
:020000040000fa
:04005c00f4060000a6
:020000040000fa
:04006000f4060000a2
:020000040000fa
:04006400f40600009e
:020000040000fa
:04006800f40600009a
:020000040000fa
:04006c00f406000096
:020000040000fa
:04007000f406000092
:020000040000fa
:04007400f40600008e
:020000040000fa
:04007800f40600008a
:020000040000fa
:04007c00f406000086
:020000040000fa
:04008000f406000082
:020000040000fa
:04008400f40600007e
:020000040000fa
:04008800f40600007a
:020000040000fa
:04008c00f406000076
:020000040000fa
:04009000f406000072
:020000040000fa
:04009400f40600006e
:020000040000fa
:04009800f40600006a
:020000040000fa
:04009c00f406000066
:020000040000fa
:0400a0001c0600003a
:020000040000fa
:0400a400ba05000099
:020000040000fa
:0400a800f40600005a
:020000040000fa
:0400ac00f406000056
:020000040000fa
:0400b000f406000052
:020000040000fa
:0400b400f40600004e
:020000040000fa
:0400b800f40600004a
:020000040000fa
:0400bc00f406000046
:020000040000fa
:0400c000f406000042
:020000040000fa
:0400c400f40600003e
:020000040000fa
:0400c800f40600003a
:020000040000fa
:0400cc00f406000036
:020000040000fa
:0400d000f406000032
:020000040000fa
:0400d400f40600002e
:020000040000fa
:0400d800f40600002a
:020000040000fa
:0400dc00f406000026
:020000040000fa
:0400e000f406000022
:020000040000fa
:0400e400f40600001e
:020000040000fa
:0400e800f40600001a
:020000040000fa
:0400ec00be0600004c
:020000040000fa
:0400f000a006000066
:020000040000fa
:0400f400f40600000e
:020000040000fa
:0400f800f40600000a
:020000040000fa
:0400fc00f406000006
:020000040000fa
:04010000f406000001
:020000040000fa
:04010400f4060000fd
:020000040000fa
:04010800f4060000f9
:020000040000fa
:04010c00f4060000f5
:020000040000fa
:04011000f4060000f1
:020000040000fa
:04011400f4060000ed
:020000040000fa
:04011800f4060000e9
:020000040000fa
:04011c00f4060000e5
:020000040000fa
:04012000f4060000e1
:020000040000fa
:04012400f4060000dd
:020000040000fa
:04012800f4060000d9
:020000040000fa
:04012c00a405000026
:020000040000fa
:040130008a0600003b
:020000040000fa
:04013400f4060000cd
:020000040000fa
:04013800f4060000c9
:020000040000fa
:04013c00f4060000c5
:020000040000fa
:04014000f4060000c1
:020000040000fa
:04014400f4060000bd
:020000040000fa
:04014800f4060000b9
:020000040000fa
:04014c00f4060000b5
:020000040000fa
:04015000f4060000b1
:020000040000fa
:04015400f4060000ad
:020000040000fa
:04015800f4060000a9
:020000040000fa
:04015c00f4060000a5
:020000040000fa
:04016000f4060000a1
:020000040000fa
:04016400f40600009d
:020000040000fa
:04016800f406000099
:020000040000fa
:04016c00f406000095
:020000040000fa
:04017000f406000091
:020000040000fa
:04017400f40600008d
:020000040000fa
:04017800f406000089
:020000040000fa
:04017c00f406000085
:020000040000fa
:04018000f406000081
:020000040000fa
:04018400f40600007d
:020000040000fa
:04018800f406000079
:020000040000fa
:04018c00f406000075
:020000040000fa
:04019000f406000071
:020000040000fa
:04019400f40600006d
:020000040000fa
:04019800f406000069
:020000040000fa
:04019c00f406000065
:020000040000fa
:0401a000f406000061
:020000040000fa
:0401a400f40600005d
:020000040000fa
:0401a800f406000059
:020000040000fa
:0401ac00f406000055
:020000040000fa
:0401b000f406000051
:020000040000fa
:0401b400f40600004d
:020000040000fa
:0401b800f406000049
:020000040000fa
:0401bc00f406000045
:020000040000fa
:0401c000f406000041
:020000040000fa
:0401c400f40600003d
:020000040000fa
:0401c800f406000039
:020000040000fa
:0401cc00f406000035
:020000040000fa
:0401d000f406000031
:020000040000fa
:0401d400f40600002d
:020000040000fa
:0401d800f406000029
:020000040000fa
:0401dc00f406000025
:020000040000fa
:0401e000f406000021
:020000040000fa
:0401e400f40600001d
:020000040000fa
:0401e800f406000019
:020000040000fa
:0401ec00f406000015
:020000040000fa
:0401f000f406000011
:020000040000fa
:0401f400f40600000d
:020000040000fa
:0401f800f406000009
:020000040000fa
:0401fc00f406000005
:020000040000fa
:04020000f406000000
:020000040000fa
:04020400f4060000fc
:020000040000fa
:04020800f4060000f8
:020000040000fa
:04020c00f4060000f4
:020000040000fa
:04021000f4060000f0
:020000040000fa
:04021400f4060000ec
:020000040000fa
:04021800f4060000e8
:020000040000fa
:04021c00f4060000e4
:020000040000fa
:04022000f4060000e0
:020000040000fa
:04022400f4060000dc
:020000040000fa
:04022800f4060000d8
:020000040000fa
:04022c00f4060000d4
:020000040000fa
:04023000f4060000d0
:020000040000fa
:04023400f4060000cc
:020000040000fa
:04023800f4060000c8
:020000040000fa
:04023c00f4060000c4
:020000040000fa
:04024000f4060000c0
:020000040000fa
:04024400f4060000bc
:020000040000fa
:04024800f4060000b8
:020000040000fa
:04024c00f4060000b4
:020000040000fa
:04025000f4060000b0
:020000040000fa
:04025400f4060000ac
:020000040000fa
:04025800f4060000a8
:020000040000fa
:04025c00f4060000a4
:020000040000fa
:04026000f4060000a0
:020000040000fa
:04026400f40600009c
:020000040000fa
:100400004ff12200aef727000e0188000000000027
:10041000000020000000e000020032000001200087
:100420002002880014000700c20207000000e0005c
:1004300003003a00806f2c0001002000020037000a
:100440000000200001002000810f70000100320038
:100450000f000700000020000000e0000200320052
:100460000000020000000000c6d5020000000000ed
:100470000040da000000fe00e02e20000000e00056
:1004800002003200002020009001880000000600d9
:10049000a1028800800478000000eb001f003700f4
:1004a000e284440054a0b4009905ba00e2844400f8
:1004b00054a0b4009906ba00e284440054a0b400e9
:1004c0000006eb00476fde00fd07b200ae018800ba
:1004d000636ce10003003a000ad801000000eb0061
:1004e0000e003700606ce10008003a00004deb00a0
:1004f0000a05e800020039003420ec000af0a000f0
:100500008b05e900f9ff3e00040037006168e10057
:10051000010032000086eb000b00070019c7ba008b
:100520000e04e0001905ba0003003a000a00e000da
:10053000dbff3a0000000600fe07b200ae028800b2
:100540008a047800f5ff37000cd0a300e20f4d00bd
:100550001c00390089027800354dba000a05e80010
:10056000020039003420ec000af0a0008b05e900fd
:100570000f003200254dba000a05e80002003900dc
:100580003420ec000af0a0008b05e90008003200de
:100590000c00e0000600320015cdba000a05e800a4
:1005a000020039003420ec000af0a0008b05e900bd
:1005b0008984e80054a0b4000b00e000e2ff3a0098
:1005c000000006009902ba00055d78008b05e9007d
:1005d000f7ff3200c82ade00055d78008b05e900d0
:1005e000f3ff32000c00e000f1ff320019ddba0029
:1005f000eeff37000aaf04000000000014af040053
:100600000000000000af040000000000d0ae0400b5
:10061000000000002cad0400000000006ead0400de
:10062000000000008cad040000000000fcad0400e0
:100630000000000056ae040000000000a4ad04005d
:1006400000000000a2ae0400000000003ead040067
:10065000000000004aad04000000000056ad040098
:100660000000000062ad040000000000b6ad040010
:1006700000000000c2ad040000000000cead040088
:100680000000000016ad040000000000daad040018
:10069000000000007ec2040000000000c8d8040072
:1006a0000000000016c304000000000092c3040014
:1006b00000000000f4c304000000000052c4040065
:1006c00000000000ded6040000000000ecb90400c9
:1006d000000000000aba04000000000006bd04008b
:1006e0000000000024bd04000000000042b004002f
:1006f000000000007ab00400000000005eb00400ba
:100700000000000046b104000000000052b20400e6
:10071000000000001ecf040000000000180e0400be
:10072000000000004c0e040000000000e412040071
:100730000000000000000400000000003600f80087
:10074000809fbe00829fbe00849fbe00869fbe0029
:100750000000fa00c028a9000000eb00f8d8020051
:10076000000000000080fa004f03be004f02be00f0
:100770004f01be004f00be003600f90000400600e9
:100780003600f800809fbe00829fbe00849fbe009e
:10079000869fbe000000fa0002d90200000000009f
:1007a000c048a90010002000f8d802000000000096
:1007b0000080fa004f03be004f02be004f01be0092
:1007c0004f00be003600f900004006003600f80079
:1007d000809fbe00829fbe00849fbe00869fbe0099
:1007e0000000fa00c068a90020002000f8d802002c
:1007f000000000000080fa004f03be004f02be0060
:100800004f01be004f00be003600f9000040060058
:100810003600f800809fbe00829fbe00849fbe000d
:10082000869fbe000000fa00c088a90030002000aa
:10083000f8d80200000000000080fa004f03be005c
:100840004f02be004f01be004f00be003600f9004f
:10085000004006003600f800809fbe00829fbe0068
:10086000849fbe00869fbe000000fa00c0a8a900b9
:1008700040002000f8d80200000000000080fa00cc
:100880004f03be004f02be004f01be004f00be002e
:100890003600f900004006003600f800809fbe00d8
:1008a000829fbe00849fbe00869fbe000000fa00ab
:1008b000c608a90070002000f8d80200000000005f
:1008c0000080fa004f03be004f02be004f01be0081
:1008d0004f00be003600f900004006003600f80068
:1008e000809fbe00829fbe00849fbe00869fbe0088
:1008f0000000fa0021468000000220000080600015
:100900000000e00004003200c4a8a900900020000c
:10091000f8d802000000000020468000700060004f
:100920000000e00004003200c488a900a0002000fc
:10093000f8d8020000000000ffff37003600f80082
:10094000809fbe00829fbe00849fbe00869fbe0027
:100950000000fa00f07681000000e00002003200a2
:10096000f07681000000010010ee220010407800b7
:100970008040e80010ee22000148780000ee2200de
:1009800011c0b3000148780000e8a9000080fa0017
:100990004f03be004f02be004f01be004f00be001d
:1009a0003600f900004006003600f800809fbe00c7
:1009b000829fbe00849fbe00869fbe000000fa009a
:1009c000803581000000e0000200320080358100a7
:1009d00000000100b1258100a0258100808f50001a
:1009e00002003a002188a900190037000188a900f7
:1009f00010003700b0258100904078008180fb0016
:100a0000211188000000e800b0258900b12581008f
:100a1000405b2200808f500002003a00904b220081
:100a2000b0258900b1258100a0258100808f50006c
:100a300006003200111180000020200000806000bc
:100a40000000e000ebff3200010037000000000072
:100a50000080fa004f03be004f02be004f01be00ef
:100a60004f00be003600f900004006003600f800d6
:100a7000809fbe00829fbe00849fbe00869fbe00f6
:100a80000000fa00903581000000e0000200320012
:100a900090358100000001000168a9001f003700a7
:100aa0008025810031118000814078000148780064
:100ab00081258100e06a2200808f50000900320009
:100ac000802581008000e80090258100808f500003
:100ad00004003200802581000000e80080258900a4
:100ae0000e00370081258100e06a2200808f5000cf
:100af00007003a0091258100405b2200808f500062
:100b000003003200405b220080258900030037008b
:100b1000804b220011c0b300014878001011800002
:100b2000610060000000e000ddff3a000080fa0094
:100b30004f03be004f02be004f01be004f00be007b
:100b40003600f90000400600801f78000000fa001f
:100b500010118000620060000000e000010032001f
:100b60002222a9000828a9000080fa004f0078007e
:100b7000004006003600f800809fbe00829fbe0045
:100b8000849fbe00869fbe000000fa00a045810041
:100b90000000e00002003200a045810000000100da
:100ba000d1358100c0358100808f500002003a00ad
:100bb00023e8a9001900370003e8a9001000370056
:100bc000d0358100904078008180fb00a111880021
:100bd0000000e800d0358900d1358100807b2200fb
:100be000808f500002003a00d06b2200d03589007f
:100bf000d1358100c0358100808f50000600320061
:100c00009111800000202000008060000000e000c2
:100c1000ebff320001003700000000000080fa0006
:100c20004f03be004f02be004f01be004f00be008a
:100c30003600f900004006003600f800809fbe0034
:100c4000829fbe00849fbe00869fbe000000fa0007
:100c5000b04581000000e00002003200b045810094
:100c60000000010003c8a9001f003700a035810063
:100c7000b11180008140780001487800a1358100e1
:100c8000208b2200808f500009003200a0358100a7
:100c90008000e800b0358100808f500004003200f1
:100ca000a03581000000e800a03589000e00370063
:100cb000a1358100208b2200808f500007003a0070
:100cc000b1358100807b2200808f5000030032000c
:100cd000807b2200a035890003003700c06b220012
:100ce00011c0b300014878009011800061006000dd
:100cf0000000e000ddff3a000080fa004f03be0074
:100d00004f02be004f01be004f00be003600f9008a
:100d100000400600801f78000000fa00901180005b
:100d2000620060000000e000010032003222a900f1
:100d30000848a9000080fa004f0078000040060033
:100d40003600f800809fbe00829fbe00849fbe00d8
:100d5000869fbe000000fa0070768100000001004e
:100d60000080fa004f03be004f02be004f01be00dc
:100d70004f00be003600f900004006003600f800c3
:100d8000809fbe00829fbe00849fbe00869fbe00e3
:100d90000000fa0080768100000001000080fa0067
:100da0004f03be004f02be004f01be004f00be0009
:100db0003600f90000400600809fbe000000fa00e7
:100dc000e0758100f175810061004000e08048001d
:100dd000e0758900f17589000068a9000080fa00bb
:100de0004f00be00004006000040da000000fe0098
:100df0000a00fa0011002000b1bf9f00c0bf9f0091
:100e00006a805700310a07004fb897000080fa0047
:100e1000000006000a00fa0051002000b1bf9f0048
:100e2000c0bf9f006a8057002a0a07005fb897007a
:100e30000080fa0000000600889fbe008004780051
:100e4000907881000000e00004003a000e000700e6
:100e50000084eb000000e000080035009878810075
:100e60000900e00005003200090044000600070008
:100e70000000e00001003d000084eb000800780065
:100e80004f04be0000000600800078000100e00072
:100e900003003a000000200090788900000005005f
:100ea0000080eb0002002000828f500002003e0014
:100eb000917889000000eb00000006000a00fa00ab
:100ec000200798003107980042079800be00900064
:100ed000110798000000eb00000f78000e003700ab
:100ee0000000000096bd0200000000000004a20007
:100ef0000004e000fbff3a001e0090001040780064
:100f00009e0090008100e8001107980056bd020085
:100f1000000000001e0fe8004e0090009e007800c8
:100f2000808f5000eeff39004e0090000080fa00e4
:100f3000000006000000050003f0a200889fbe002c
:100f40008a9fbe008c1f7800830007008a00330050
:100f50006450e1004f0032006420e1005200320092
:100f600003826c0007003b000905d0000306d00097
:100f7000820f54000c065d000200390002003200ae
:100f800089017800030678008582550004003d0041
:100f90000003fd008103fd008502ea008b8542000d
:100fa000840f720002003b0060001000e080180017
:100fb0006011b8000005eb007a28e1000a00390052
:100fc00006007800c75ddd00f707b2008780750076
:100fd0002d003700828171000a01780061056000f0
:100fe0008180d1000080d3008502e900f9ff3b0039
:100ff000060440008784480002003b00600414009f
:10100000e0841c000988a300070032008a81710077
:1010100082817100610164008904d1000884d300d9
:101020008b05e800170037000978a30013003a0089
:101030000b00e000130034008b05e90008044400b5
:1010400089844c000a4474000978a3000d003a001a
:101050000b00e000070034008b05e90008044400a1
:1010600089844c0001003a000b0020000978a3009d
:10107000f7ff32000001eb000200370082817100af
:101080000a0178000e0007000cf0a70001f0a00094
:10109000420037006420e10002003a00838f6c00b8
:1010a000420033000801be000200be003b003700d2
:1010b000f4ff2f00540137006011b8006d013700b4
:1010c00081002000618055000b003d000b002000d6
:1010d00061fe2f000100e1001d00340082817100db
:1010e000610164008904d1000884d3000000e80095
:1010f000faff3a00710020006100640003007000f4
:10110000020060000900320061044400e0844c00e9
:101110000988a500050032008b05e8006808e10099
:1011200002003a008904d1000884d300f20f2000a5
:101130000258e10005003d00c75ddd00f907b2007f
:101140008980750008007800000006000bf8270071
:101150008b007800000005000004be007401070049
:101160000003be000405be000200be0070010700bf
:10117000844f7500000006000200be006450e100cc
:10118000050036006420e100020036000968a30073
:1011900001003a000800be000160a0004f06780080
:1011a0004f05be004f04be0000000600f0ff2f00f8
:1011b000f1ff2700f9ff37006022b8000602200087
:1011c0000000d0008180d2000482d2008582d2004b
:1011d0000000a0000202520083825a000300310086
:1011e0000202420083824a000000a1000603e900d7
:1011f000f3ff3a0000000600889fbe008a9fbe00f1
:1012000030044200b0844a0030054b0090854b000a
:101210006000b1000898be000a90be000440e100e2
:1012200005c8e10006d0e10007d8e1000200310066
:10123000680040001008e8004f05be004f04be00e3
:1012400000000600889fbe008a9fbe001004780040
:101250009004900020059000b00590000418540000
:1012600005985c0006185d0007985d0011002000dd
:101270000440e10005c8e10006d0e10007d8e10024
:10128000010039008000eb00108810004f05be00ff
:101290004f04be00000006001200fa00889fbe0046
:1012a0008a9fbe008c9fbe00e0b79f00f1b79f00f1
:1012b00082bf9f0093bf9f000605be000404be00ce
:1012c0000000eb00d0b79f00c0b79f00b0b79f00f1
:1012d000a0b79f0090b79f00000678005fb197000d
:1012e000cfb09700820141003fb097000200e000bc
:1012f00004003d00370007007e805700beff070056
:1013000003003700330007007e805700cdff070041
:10131000dfb697000d00e0000c0035006fb29700bb
:10132000ffb297000fbb97009fbb970010002000f3
:10133000010020006011b80000027200818272007a
:1013400002037300838373001b0007000c06e80090
:1013500001042000810f5600e0ff3a000d00e0007c
:1013600004003d000802be000a03be007e80570054
:10137000a1ff07005fa897000000e00005003a0009
:101380001fb29700afb297003fb39700cfb397005b
:10139000090007006fb09700ffb097000fb99700e2
:1013a0009fb997004f06be004f05be004f04be0018
:1013b0000080fa000000060001000700000006009f
:1013c000a4b79f00b5b79f00c6b79f00d7b79f00cf
:1013d000000006004f09de0082817100b3b79f0054
:1013e0004f01de008180400082807000a1b79f0025
:1013f0008fb097004f09de0000004000020070002f
:1014000090b79f007fa897004f01de0081804000c9
:101410008280700081b79f000d0007004f3ade0008
:101420000000400004007000f0af9f0008000700bb
:101430000402420085824a0006034b0087834b006a
:10144000dfff07000802be000a03be00000006001e
:101450002fb29700bfb297004fb39700dfb397004a
:1014600000000600881f780018002000881f780000
:1014700089ff07008f87e9004f047800000006000d
:10148000801feb0084ff07008f87e9000000060043
:10149000889fbe008a9fbe00e00f5000e08f58007a
:1014a000e00f5900e08f59000c003d006044b80087
:1014b0006055b8000000540081805c0002015d00ae
:1014c00083815d00180020001500070008003d0022
:1014d000180007000004eb00050037000004eb00d3
:1014e0000f00070002003d00120007001800200056
:1014f000dcff07000800e000060032006022b800b0
:101500006033b8000000520081805a0002015b0085
:1015100083815b004f05be004f04be000000060043
:10152000e00f5200e08f5a00e00f5b00e08f5b009d
:10153000000006006044b8006055b8000402540082
:1015400085825c0006035d0087835d000000060065
:10155000889fbe008a9fbe008c1f7800e00f50005d
:10156000e08f5800e00f5900e08f59000d003d005a
:101570006044b8006055b8000000540081805c00f1
:1015800002015d0083815d001c0020000820e10055
:1015900009a8e1000ab0e1000bb8e1000d003d0030
:1015a000080037000006eb00e00f5200e08f5a0001
:1015b000e00f5b00e08f5b0006003d006044b80078
:1015c0006055b8000402540085825c0006035d008b
:1015d00087835d00aaff07000c00e00006003200d0
:1015e0006022b8006033b8000000520081805a00c9
:1015f00002015b0083815b004f0678004f05be004f
:101600004f04be0000000600889fbe008a9fbe00f7
:10161000841f7800d0fe07004f00780011003300cf
:10162000f0ff2f00838f6c0006003b00040565006f
:101630000a00a7000800370009f0a60010002000eb
:1016400008003700820f5400838f5c0003003900cc
:101650001000200001003e000000200009f0a7005b
:101660000000ea004f05be004f04be000000e0008d
:1016700000000600889fbe008a9fbe0000827000a6
:101680000402710004827100260032000004be00d2
:101690000200be006011b8006b0920009502200016
:1016a0000182cf000a0039000541b1000082cf005d
:1016b000070039000541b1000982cf00040039005c
:1016c0000541b1000882cf00010039000541b10099
:1016d00005425200120032000a003b008281710074
:1016e000610164008100d1000080d3008984d300af
:1016f0000884d3008b05e8000442e800f7ff3a00b5
:10170000070037000804440089844c0000004800aa
:10171000818048008b05e9000442e900f9ff3a00a6
:1017200067fe07004f05be004f04be000000060024
:10173000c70ade00f107b200f50fb2000800320060
:10174000e1cf4200020032000170a0002400050039
:10175000810f7000010032000408050044000500fc
:10176000810f700002003a00140005008502e900b4
:101770000000400081c04800fcff3b000170a00059
:101780002400050061d722003000070080007800a7
:101790000080eb000100e0000400350061d722006a
:1017a000a0002000020007004f80de0000000600bd
:1017b000889fbe008a1f78000004be00c900900008
:1017c00069009000808f5000060039000900780001
:1017d000cf000700800078000080eb000100e000ef
:1017e0001700350008457800490090000858780037
:1017f000c00498001900780000b8a30004003a0063
:1018000000a8a30008003200ea4f540006003a0086
:101810000900780077030700800078000080eb0063
:101820000100e00006003a0000c02000190060003e
:101830000200320049009000e00498000a80fb009a
:101840004f0578004f04be0000000600889fbe00d0
:101850008a9fbe008c1f7800800478000104780005
:101860002f003700c800900068009000808f500063
:101870000400390008007800a50007000000e0001f
:101880003a00350000402000180060000a003200d5
:10189000a1002000090078008f00070000067800f2
:1018a0000c00e00004003200618514000a054600c7
:1018b000cfd5de0004003700090078006200070081
:1018c0000005be000006eb00480090006801900093
:1018d00000015100cf91de008a0f51008b8f59001b
:1018e000020031000205be000006eb000a01be0046
:1018f000890078003a000700480090000a00400084
:10190000400498000c00e000040032000800780059
:10191000380307000000e00014003a008a84440005
:101920001904e000cfff3a0000802000180060009a
:1019300006003200080078002e03070080007800bf
:101940000080eb000100e00009003a0001c0200027
:10195000988060000000eb00050032004800900015
:10196000600498000000eb00010037000080eb00ed
:101970004f0678004f05be004f04be000000060071
:10198000889fbe000202be008001eb000e003700ff
:10199000611cb80008014000124378000884400030
:1019a000184178008301e800824f530004003200a0
:1019b00010002000080031000080eb000600370016
:1019c00061025200e0825a00e00f5200e08f5a009c
:1019d000efff3a000000eb004f04be0000000600dd
:1019e0000202be008001eb0007003700611bb80057
:1019f000060140000683400016497800610252004b
:101a0000e0825a008301e800e00f5200e08f5a00a4
:101a1000f6ff3a00000006000202be008001eb0063
:101a200005003700030140000149780061025200bf
:101a3000e0825a008301e800e00f5200e08f5a0074
:101a4000f8ff3a0000000600800078000000eb007c
:101a5000008140000000e8001204e000fcff3a00b2
:101a600001005100cf80de00000006000002eb0004
:101a700004003700864a780061015100e081590076
:101a80000402e8006123b80086024000e00f510024
:101a9000e08f590002003a008000eb000a00370096
:101aa00006834000164378000604e000f1ff3a0088
:101ab000f9ff370001824200004aeb00610151004a
:101ac000e08159008100e800e00f5100e08f5900eb
:101ad000f8ff3a00000006000001eb0082017800e8
:101ae0006103b80006034100e0834b001642780012
:101af000814f520001003a00860178000201e8009f
:101b00000404e000f6ff3a0003007800000006003d
:101b1000889fbe008a1f780000047800c8009000eb
:101b2000680190000000eb00828f50003d003900fa
:101b3000180078002200290002016000e20f510025
:101b400007003200012020000000e0000100350005
:101b500001202400008c70000080eb003100370071
:101b60000200260002006000820f500009003a00c7
:101b700038009000808f500006003900080078007f
:101b80009c020700800078000080eb000100e0006c
:101b900024003a001805780000c02000000065000d
:101ba00019003a00a80490006002200008004000dc
:101bb000808f540014003a00002020000100200013
:101bc000c1030700200498000000e00005003a006f
:101bd00029049800490498008904e8003904980011
:101be000080037000a60a0000a0c78004004980042
:101bf000012020008080400031049800400c9800b3
:101c0000500c98002502070028009000500498000e
:101c1000380090006004980000002600180c700046
:101c20000000eb004f0578004f04be0000000600e6
:101c3000881f78008a9fbe000004780001007800a9
:101c40000205be00880078000202be0012002000db
:101c500003002000f60207008a0f50008b8f580007
:101c6000010032000004eb00080078004f05be00c0
:101c70004f047800000006000000fa00e8815700d9
:101c80004fb9970061d7220080e12000d8000700fb
:101c90000080fa0000000600881f78008a9fbe00be
:101ca000000478000200be000405be008801780030
:101cb00012002000ff050700cf80de008a0f5000d1
:101cc0008b8f5800010032000004eb000800780000
:101cd0004f05be004f047800000006006800fa00bf
:101ce000889fbe008a9fbe000005780081047800ae
:101cf00082057800030478008400780000f92f0042
:101d00000f0040008f020700da8f9f00fb8f9f00bb
:101d10000000eb00a09f9f00e98f9f001885fb004b
:101d20008a04fb000a05ea004f55de00500220003d
:101d3000808f54000e003200e10f55000c003a0075
:101d40001200200003002000880078007f889700a0
:101d50005f8a970004000100f08f9f000000e00000
:101d60009e0032002f9897000000e800a09f9f007f
:101d70000a04440050022000808f54000400320006
:101d80000900e000e5ff3a002f9897009400370023
:101d90000000eb00809f9f00f0979f00e0979f005e
:101da000d0979f00c0979f00b0979f00c09f9f0053
:101db000000578000800370041e52200810050004e
:101dc0008100d00082e42200828040004f9897007a
:101dd00011007000c09f9f008a044400994578005c
:101de0008b00fb0040e522003d0207000a05e800e9
:101df0000000e000f0ff3a00a1c2b30081cf55001f
:101e00000e003a008f8897000180e900808f9f00c4
:101e100010007800b09f9f000000e00005003d002a
:101e20000000ea00b09f9f004f9897000020a0009c
:101e3000c09f9f000904e80010003700b09f9f007a
:101e40008000eb000100780006003700f3ff270058
:101e5000830f500002003200ea00b9000000410088
:101e60008100e800018444001801fb000203b10076
:101e7000e90f5100f5ff3600b09f9f00e0c2b300ac
:101e8000984f1000030032000080eb00909f9f00ed
:101e90002000370008007800a1c2b300d0cf1000a6
:101ea00007003a000f8997008280e900818f9f0028
:101eb00091007800919f9f000004e8001500370012
:101ec0000000eb00909f9f00800078000600370024
:101ed000f2ff2700820f500002003200ea00b90032
:101ee000000042008100e8000801e8008001eb00ea
:101ef00002814000e0814900124278000402fb00a8
:101f00000403b100e90f5200f1ff3600909f9f00db
:101f100002047800984478008900fb0000e4220065
:101f2000ef0107000000e000020032000804e800b2
:101f3000010037008044eb00a97f9f0080c6b300fa
:101f400080cf540006003a0098cf140010003a00e9
:101f500066405000a07f9f000804e8000c00370096
:101f6000c0c6b30080cf540009003a0098cf1400d7
:101f700007003a0067404000d84f100002003a00c6
:101f80006e4050000100370010c7b300a07f9f00d3
:101f90001801fb00c3fb2f008f81410001f92f00c6
:101fa0008f80400020f92f000f004000150007002f
:101fb0000000e00009003a00c1fb2f008f804000c4
:101fc00020f92f000f0040005e0407000000e00031
:101fd000020035000804e80050ff37000080eb00e5
:101fe0004f05be004f04be000080fa00000006004e
:101ff000030278008201780001017800c1e420002a
:1020000036ff3700889fbe008a9fbe00e4c6b3003b
:10201000844f5100d000320010003c006b4252004f
:10202000844f51001800320005003c0054c2b30038
:10203000844f51000801320084c5b3000f003700ff
:1020400044c6b300844f510015003200654242007f
:10205000844f510003013a001100370004c7b30058
:10206000844f5100ef0032005f00350065424200ae
:10207000844f51005c00320063424200844f5100a3
:10208000f8003a00580037001181e9008208780012
:10209000a00890008181410092497800f700370044
:1020a000006a9000c5c6b300854f520008003a0090
:1020b00091027800648252008408780094029000b3
:1020c000140278004fabde0086037800160037005c
:1020d00015c7b300854f520003003a001104780081
:1020e0006802540005003700a5c6b300854f5200b2
:1020f00008003a009104780068825400840878004f
:102100009402900024039000b4039000140278001d
:10211000050037001182e900840878001402780075
:10212000cfa2de00612bb9000498be000690be006d
:102130008068900088c6b30088cf50000d00320040
:1021400028c6b30088cf500004003a000402fb0008
:10215000cfa2de00612bb9000800370048c7b300ea
:1021600088cf5000030032006644440088cf5000fe
:1021700004003a00cfa2de00612bb9000498be0033
:102180000690be001002780090029000200390009c
:10219000b0039000a0089000e00f5200e08f5a00ba
:1021a000e00f5b00e08f5b0003003d000182410017
:1021b000d5c2b3000a003700301290000418a30003
:1021c0000300320001824100b5c2b30004003700b1
:1021d0000408a3005b0032000182410005c2b30085
:1021e000054a780055003700006a9000c5c6b30064
:1021f000854f520009003a0011057800640255002d
:102200008408780014047800940490006055b800a5
:102210000802be000a03be001600370015c7b3004f
:10222000854f520003003a00910478006882540000
:1022300005003700a5c6b300854f520008003a00dc
:102240001105780068025500840878009402900017
:1022500024039000b40390001402780005003700b6
:102260001182e90084087800140278008002eb00f3
:102270006033b8000498be000690be0080689000ed
:1022800088c6b30088cf500003003a008002eb00fc
:102290006033b8000e00370028c6b30088cf500066
:1022a00004003a000482fb008002eb006033b800b7
:1022b0000700370048c7b30088cf50000300320042
:1022c0006644440088cf500003003a006033b800f1
:1022d0000498be000690be00b01090000138a30024
:1022e0001800320010027800900290002003900045
:1022f000b0039000e00f5200e08f5a00e00f5b0047
:10230000e08f5b000f00320081c7b300814f5100a6
:102310000300320081c5b300814f510009003a002b
:10232000a00890000182410005c3b300054a78006f
:102330008100e80001824100024a78008100e80043
:1023400021089800a0089000818141007300980046
:10235000824078003e00370080699000c4c6b30018
:102360001181e90084cf5100220032000a003c00b4
:102370006442520084cf51002500320004c2e800bc
:1023800084cf5100130032006842520084cf5100c4
:102390001e003a000a00370044c7b30084cf510042
:1023a0001b0032006642420084cf5100110032000f
:1023b0006942520084cf510014003a0005003700f2
:1023c00082087800920078002060900080487800b1
:1023d0002c003700820878009200780010129000dc
:1023e000cfa2de00612bb9008498be008690be00ab
:1023f00024003700820878009200780010119000c5
:10240000cf91de008288be001e0037001181e900f6
:102410008208780092007800101090008008780000
:10242000180037001181e900820878001202780054
:10243000cfa2de00612bb9000498be000690be005a
:10244000a0089000818141007300980081c7b3000b
:10245000f20107000b003700a008900081814100c5
:1024600005003700a0089000818141000204e000cf
:1024700001003a0052c2b300824978008100e800ae
:10248000210898000000eb004f05be004f04be007d
:1024900000000600402e21009d003700881f7800b4
:1024a00008f122001804e00003003a00f9ff0700d9
:1024b00020c0b300004c78004f04780000000600f4
:1024c000889fbe00000478000800780049000700db
:1024d0008004780000042000180060000200320030
:1024e00028009000990007000000eb0020049800ed
:1024f000384090000004e000050035000000fb00bb
:102500003bfa07000000e000010032008084eb008d
:10251000181090000000e000080032003dfa0700ab
:102520000000e000010032008084eb0018109000f1
:10253000860007000000eb0010149800000820003f
:10254000180060000f00320041dc22000000eb00a8
:10255000d10f140005003a000000400061dc2200a9
:10256000008040000008eb00030037000000e80096
:10257000e80f5000f6ff3a000800780073000700eb
:102580000e003700000c780000c0eb0030449800cb
:1025900060022000080040002004980040049800d9
:1025a00050049800400c980060049800500c98006b
:1025b0007004980076004400000c98000900780030
:1025c0004f04be0000000600889fbe0068dd2200a8
:1025d000f0045400480078000000e00001003200e0
:1025e000b7ff0700890f5400faff3a004f04be00fe
:1025f00000000600889fbe008a1f78000004780053
:102600000800e0000d003a0048dc2200700544009c
:102610008004eb00580078000000e0000400320065
:10262000f4ff07000000e00001003d008084eb00a3
:102630008a0f5400f7ff3a002500370000002200ff
:10264000180060008004eb0021003200a804900014
:102650000f00370009015100384090000000fb00d6
:102660008900780015fa07000000e00007003c0030
:10267000280090004004980060049800500c9800d6
:102680001890a0008084eb00110037008084440083
:1026900048019000828f5400eeff3900280090001e
:1026a000400498009800780002c020000281600079
:1026b00001003a003800900001e8a3000200320057
:1026c0006004980001003700500c98008004eb0073
:1026d000090078004f0578004f04be000000060096
:1026e000020037000304e000060032000001780019
:1026f00002007800b041780081cf5100f9ff3a0024
:10270000010037000001eb00020078000000060025
:10271000010020000100e0000900320001008000fb
:102720000100e000060032008100e900010088009d
:102730008180400002008000810041008008780014
:102740000000060001087800000006000000e0001c
:1027500036003200640050001002780090029000b1
:10276000e50f5200e08f5a00300036000408a30045
:102770002e003a00e17781000100e0000200320003
:10278000810f50000400310021009800e07789009b
:102790001800370082007800210190000200e0005c
:1027a00002003200800f5100faff39001103780057
:1027b0009103900086814000830f50001b00390078
:1027c000808f510004003a008418430085904b002c
:1027d00001007800070037000200e000030032002b
:1027e00004024000840f51001000390022009800bc
:1027f000a0009800a00090000100e0000b00320053
:1028000010014000828f500008003a00a2ef220021
:102810000009eb0010017800900190003118410090
:1028200021904900a10090002100980000000600be
:10283000ea874700889fbe008a9fbe008c9fbe002b
:102840008e1f7800000678000204be000405be005a
:10285000010778000400be00f8030700d0b79f000e
:10286000e1b79f00e00f5000e08f580052003200a7
:10287000e00f5400e08f5c0050003200fcb79f0076
:102880000006be00ce0090006e009000808f5000c9
:10289000040039000e0078009dfc07000000e000f5
:1028a00033003500004020001e0060000c003200a4
:1028b0000c01be00a10020007fb09700b900070006
:1028c000000278000400e00008003200ffb1970029
:1028d000618511000a054200cfd5de0004003700f3
:1028e0000c05be000002eb00010037000c05be0025
:1028f0004e0090006e01900000015100cf91de006b
:102900008a0f51008b8f5900020031000205be0072
:102910000002eb000a01be00ffb0970084bf9f00d9
:102920002ffc07000a0656008b865e004e009000c2
:102930000a004000400798000fba97000400e0002a
:10294000040032000e0078002aff07000000e000bb
:1029500007003a00e00f5600e08f5e0004003200ee
:102960007fb097000a004000f0b79f00c5ff370016
:10297000008020001e006000020032000e0078007f
:102980001cff070000c020001e0060000200320093
:10299000ce009000610798005fb19700efb19700fb
:1029a0000c0051008d8059000801be0002fa07009a
:1029b0000005be00010037006055b8000a00be00e7
:1029c0004f0778004f06be004f05be004f04be0003
:1029d000af00b10000000600889fbe008a9fbe00c5
:1029e0000004be00d17781000100e0000200320047
:1029f000010078000f003700e1778100c0ef22006e
:102a000005003700b10f5400a18f5c002b00360089
:102a100064804000a10090000100e000f9ff3a004e
:102a200012003700b20f5400a28f5c002300360062
:102a300064004100100178000200e000f9ff3a0054
:102a400011017800e1778100c0ef22000500370016
:102a5000b10f5400a18f5c00180036006480400064
:102a6000a1009000828f5000f9ff3a00ba778100f0
:102a7000cb778100880f5500898f5d000100310000
:102a80000805be000a00be00580007000000e00074
:102a900006003a00880f5500898f5d00060032005d
:102aa0008b05d1000a85d300f2ff37000a98be00db
:102ab00026ff0700cbff37000000eb004f05be00ec
:102ac0004f04be0000000600889fbe000002be004a
:102ad00065004000e0804800000378000600a10087
:102ae00081017800060178000204be008000eb003e
:102af000840f5400858f5c0027003600e50f5400da
:102b0000e08f5c0002003e00680020000900200009
:102b10000800be00b0ff07008000eb000000e000ee
:102b20001d00320090007800a4ff2f00f5ff2f0059
:102b300031014200a1814a00880f5100898f59005c
:102b400003003100a102900005087800080037005a
:102b50000881400002087800a1019000230198003c
:102b6000100178003119140021911c008888be00e2
:102b7000100178000000eb000200e00004003200c9
:102b8000a20190000300e000010032006400410057
:102b9000d0778900e4804000010078004f04be0037
:102ba000000006000202be008001eb0005003700b5
:102bb0008301e80092cf10000a0032006102520047
:102bc000e0825a006103b80006834100e0834b00b5
:102bd00006017800e00f5200e08f5a00f4ff3a003f
:102be0000000050006007800000006000001be009d
:102bf0008000eb000200e0000600340002007800d4
:102c00008df8070080007800e18f400001003a0055
:102c10008000eb000100780000000600fc87470000
:102c2000889fbe008a9fbe008c9fbe008e1f7800ca
:102c30000006780080c5b30080cf50000a00320043
:102c40007740400080cf50000a00320069404000c9
:102c500080cf50000b003200f0e0220080bf9f00c8
:102c6000ae0020000a003700e2df220082bf9f0092
:102c700006003700f3e0220083bf9f008e00200093
:102c800003003700f4e0220084bf9f000e01200003
:102c90001c0278009c0290002c039000bc03900062
:102ca0000605be000404be0040c6b30080cf50003d
:102cb000030032006540400080cf50000b003a0016
:102cc000e00f5200e08f5a00e00f5b00e08f5b00e6
:102cd00006003d006000b8006011b8000404500018
:102ce000858458000605590087855900e80f57006c
:102cf0000400320040002000f00f570048003a0066
:102d00000100370030002000e00f5400e08f5c002d
:102d1000e00f5d00e08f5d0004003a008c10900031
:102d20008d0120000100e0000d0032000e01e900dd
:102d3000cf91de000802be008200640003826200c0
:102d400084027800010278000401be008fba970067
:102d50000281420012417800f2ef9f007d012000c5
:102d6000800078008100e900050033008b05d10068
:102d70000a85d3008984d3000884d300f9ff370083
:102d8000089ebe000a96be00190037008d06e900b5
:102d90000e01e900cf91de000404be008200620053
:102da0000384640088047800010478000801be00f0
:102db0008fb89700028140009240780083fd2f0079
:102dc0008d81410081f77900000178000201e9005e
:102dd000050033008783d1000683d3008582d300aa
:102de0000482d300f9ff3700049ebe000696be00a1
:102df0001c0278009c0290002c039000bc03900001
:102e0000e00f5200e08f5a00e00f5b00e08f5b00a4
:102e1000930034000d00e000dcff3c009000370020
:102e20000c68900081c6b300814f50000b00320047
:102e300006003c000004e00008003200e6c050003c
:102e4000814f500052003a0004003700c1c6b30061
:102e5000814f50004e003a00230037000800e00088
:102e600004003a000c1090008d0120000000e000ea
:102e700007003200110009000e84d8008fb99700b6
:102e80000180410010407800f0ef9f007d0120009c
:102e9000110009000e84d8000b0037001100090052
:102ea0000e04d8008d06e9008e81b900020454009a
:102eb0008fb89700088440009841780082fd2f0069
:102ec0000d01410083777900000478000800e000dc
:102ed000020032000d00e000f0ff3c00cfc4de0035
:102ee000614db90027003700e00f5400e08f5c000f
:102ef00004003a000c1090008d0120000000e0005a
:102f0000080032006171b9000800be0048020700e5
:102f10000fba97008000420091407800f1ef9f00c7
:102f20007d0120006171b9000800be00a2f8070011
:102f30000c0037006171b9000800be002d020700c7
:102f40008d06e90080f1b900020454008fba9700a1
:102f5000088442009841780082fd2f000d01410055
:102f6000837779000004be00e00f5000e08f580026
:102f7000020032000d00e000eeff3c004fcdde000d
:102f80008a057800089ebe000a96be00340037000d
:102f9000e00f5400e08f5c00e00f5d00e08f5d000b
:102fa00004003a000c1090008d0120000000e000a9
:102fb0000a0032006172b900612bb9000800be003e
:102fc0000a01be002ef907000fba970080004200e8
:102fd00091407800f1ef9f007d0120006172b900ff
:102fe000612bb9000800be000a01be001df90700f0
:102ff0000e0037006172b900612bb9000800be00f5
:103000000a01be0022f907008d06e90080f2b9002e
:10301000040454008fba9700088442009842780054
:1030200084fd2f000d02420085777a00009ebe00cd
:103030000296be001c0478009c0490002c059000b1
:10304000bc059000e00f5400e08f5c00e00f5d00d5
:10305000e08f5d00020034000d00e000e5ff3c0061
:10306000e80f570010003a003c1090000038a30011
:103070000d003200f78f560006003e0080fd2f0045
:103080000d004000ef40780000c3b30080cf500037
:103090000500320002c3b30071fd2f008d80400097
:1030a0008d06e90082f77800f8801600410e98003e
:1030b0007c0090006109b90084fd2f000f024200de
:1030c0008d00420046fa07004c0890008c109000da
:1030d000810f500006003d0000805000300e980027
:1030e0003c1090000040a100301698000f003700ff
:1030f0000100e0000d003d00bc109000f480600075
:10310000f08f500009003a002c119000ac0890009c
:10311000810051003c0990008280500000805000e6
:103120004240a90001003400300e98004f0778009b
:103130004f06be004f05be004f04be00cf01b100d8
:10314000000006000400fa00889fbe008a9fbe00af
:103150008c1f78000004780001067800a814900005
:10316000280890008084540038089000808454001f
:1031700048089000808454005808900080845400cf
:10318000680890008084540078089000808454007f
:103190000002220090bf9f0000032300a0bf9f00f9
:1031a000381090000028a30015003a000900e00044
:1031b00013003400090578008a057800e20f5500f5
:1031c000010036002b0020006159b9004802900030
:1031d000ee80570068009000040001006004980031
:1031e0000000e000ac003200181090000b0040001e
:1031f000101498000b0555004240a900eeff3c005a
:10320000280890000000e0000d0034006101b900c2
:10321000480290008c0078006800900004000100d3
:10322000600498008080eb000000e0009b0032000a
:10323000981090002808900000804000101498001a
:10324000380d90000a00e000110034008a05780073
:10325000e20f5500010036002b0020006159b90033
:1032600048029000ec8057006800900004000100c4
:10327000600498000000e000870032001810900001
:103280000b004000101498000b055500edff3700af
:1032900088689000480a900050c6b30080cf500064
:1032a00009003a000400e00016003400d800900045
:1032b000cfa2de00080990009809900068009000f5
:1032c00001000100070037000400e0000d00340099
:1032d0006121b90048029000f80090006800900059
:1032e00004000100600498008080eb000000e00012
:1032f0006a0032009810900048089000008040005a
:1033000010149800580d90000a00e00011003400dd
:103310008a057800e20f5500010036002b002000de
:103320006159b90048029000ec8057006800900095
:1033300004000100600498000000e0005600320024
:10334000181090000b004000101498000b05550059
:10335000edff370088689000680a900050c6b300ff
:1033600080cf50000d003a000400e0001c00340043
:103370004808900078019000000141006111b800f8
:10338000828fd2008381d200d8009000cfa2de00cd
:103390006800900001000100090037000400e0000f
:1033a0000f0034006121b90048089000f800900037
:1033b00080804000480290006800900004000100f6
:1033c000600498008080eb000000e00033003200d1
:1033d0009810900068089000008040001014980039
:1033e000780d90000a00e000110034008a05780092
:1033f000e20f5500010036002b0020006159b90092
:1034000048029000ec805700680090000400010022
:10341000600498000000e0001f00320018109000c7
:103420000b004000101498000b055500edff37000d
:10343000381090008000eb000028a3001700320035
:103440000900e0001500340009057800e28f5400ff
:10345000010036002a0020006151b90048029000a6
:10346000ee8057006800900004000100600498009e
:103470000000e00008003200181090000a00400030
:10348000101498008a8454004240a900eeff3c00ca
:103490008000eb00010037008080eb000100780025
:1034a0004f0678004f05be004f04be000080fa00b2
:1034b00000000600ee874700889fbe008a9fbe007e
:1034c0008c9fbe008e1f78000006be000204be0066
:1034d0000405be00060778000400be00d700070000
:1034e000d0b79f00e1b79f00e00f5000e08f580079
:1034f0006e003200e00f5400e08f5c006c00320080
:103500000c05be00f0b79f0081bf9f00b8b79f00b9
:10351000c9b79f00ce0090006e009000808f5000d1
:10352000040039000e00780079f907000000e0007f
:1035300048003500004020001e0060000c003200f2
:103540007fb297008fba9700a20020000a00be0049
:103550008b0007000004be000080740009003200e8
:103560000a0654000c06e800cfe6de00070037002c
:103570007fb697008fbe970008002000090020004a
:10358000020037007fb697008fbe97004e01900073
:103590006e00900002005000cf80de008c0f5000c3
:1035a0008d8f5800030031000006be000800200087
:1035b000090020006111b800828fd2008381d200ff
:1035c0000c0278000a00be00440007007fb197009b
:1035d0008fb997000c0151008d815900f2b79f00ff
:1035e00083bf9f004e0090000c00400040079800f1
:1035f00008847400040032000e007800fdfb070010
:103600000000e00013003a007fb297008fba9700e5
:10361000e00f5200e08f5a000e0032008c8fd20073
:103620008d86d2000c0678000cf0a1008a02d00032
:103630000c00d000008542004220a8008d854d007e
:103640004200a9004220ae004200a8000a85d30033
:10365000b0ff37003fb49700cfb497000080200040
:103660001e006000020032000e007800e1fb07003f
:1036700000c020001e00600002003200ce0090005a
:10368000610798005fb19700efb197007fb2970094
:103690008fba970004005100858059000801be00d0
:1036a000c5f607000005be00010037006055b800f0
:1036b0000a00be004f0778004f06be004f05be004f
:1036c0004f04be00ef00b1000000060000c0da00a9
:1036d0000000060000c0da00000006003400f80018
:1036e0003200f8000203be00820270008502720000
:1036f00002f0a6008301e800a301880000f0a60004
:103700008100e800910188001500b2000c00320031
:10371000104978000402e9001500320061014100ff
:10372000020039003420ec00020028006100400053
:10373000f7ff39003220ec0000002800f4ff3700ca
:10374000100978000482e90009003200620141009a
:10375000020039003420ec00020028006200400022
:10376000f7ff39003220ec0000002800f4ff37009a
:103770003200f9003400f9000601be000000060026
:10378000e00f5200e08f5a000700320096018000df
:1037900001d0fe009041780006d0fe008301fb00be
:1037a000828f51001200320061025200e0825a0002
:1037b0009601800001d0fe009041780006d0fe0006
:1037c0000304e00008003200800178001000b0001f
:1037d000808169004260af0000f0a0008381d200c8
:1037e0000180b000e6ff370000002000010020004b
:1037f00000000600839f68000100e00002003d0019
:1038000060001000e08018000300e00002003d00ae
:1038100060011100e081190067f607004f00e00029
:1038200002003b0060001000e0801800000006006d
:1038300061f607000400be0000000600020ab9009d
:10384000001bb9000200b800810042008100430063
:04385000000006006e
:020000040000fa
:103854000a5400006f740000616c000020700000c6
:103864006f770000657200003a20000025640000b4
:103874000a5400006f740000616c000020720000a4
:103884006561000063740000697600006520000033
:10389400706f000077650000723a00002025000078
:1038a400640a0000546f0000746100006c20000082
:1038b4006170000070610000726500006e740000a9
:1038c400207000006f770000657200003a2000004d
:1038d400256400000a000000566f00006c740000ac
:1038e40061670000652000006f6600002070000022
:1038f40068610000736500003a2000002564000040
:103904002025000064200000256400000a00000057
:10391400566f00006c7400006167000065200000b1
:103924006f660000206c0000696e0000653a0000bc
:1039340020250000642000002564000020250000ec
:10394400640a000000430000757200007265000004
:103954006e740000206f0000662000007068000094
:1039640061730000653a0000202500006420000017
:103974002564000020250000640a000000540000b3
:103984006f740000616c0000207000006f7700000d
:103994006572000020790000696500006c64000015
:1039a400733a0000202500006c6c0000640a0000db
:1039b400005000006f770000657200002066000070
:1039c40061630000746f0000723a0000202500005b
:1039d400640a000000460000726500007175000072
:1039e400656e0000637900003a2000002564000041
:1039f4000a00000044430000207000006f770000bc
:103a0400657200003a200000256400000a000000ee
:103a140045760000656e0000743a00002025000021
:103a2400640a000000530000746100007465000023
:103a34003a200000256400000a00000054650000dc
:103a44006d70000065720000617400007572000002
:103a5400653a000020250000640a00000000000010
:103a64000d490000276d000020470000617400002c
:103a740065770000617900000d00000050520000dd
:103a84004f4a000045430000542000003034000039
:103a94002e3200000d000000446500007665000031
:103aa4006c6f0000706d0000656e000074200000f3
:103ab4006279000020530000455300002d5400009b
:103ac40065630000680d000000480000617200009a
:103ad40064770000617200006520000076650000d4
:103ae40072730000696f00006e3a0000203000001d
:103af4002e300000322e0000323000003230000040
:103b04003038000031300000200d00000046000075
:103b1400697200006d77000061720000652000008a
:103b24007665000072730000696f00006e3a000051
:103b3400203400002e3200004d47000038310000d0
:103b4400302d0000332e0000330d0000004d000026
:103b540079200000495000003a200000256400004c
:103b64002e250000642e0000256400002e25000090
:103b7400640d0000004e0000756d000062650000d9
:103b8400722000006f6600002052000054550000af
:103b9400206400006576000069630000653a000057
:103ba40020250000640d0000004e0000756d00002b
:103bb40062650000722000006f660000205400005f
:103bc4004350000020640000657600006963000033
:103bd400653a000020250000640d00000049000043
:103be400442000006f660000204400006576000059
:103bf4006963000065200000525400005520000055
:103c04005b250000645d00003a200000256400008c
:103c14000d00000049500000206f000066200000e5
:103c240044650000766900006365000020520000ce
:103c340054550000205b0000256400005d3a00003c
:103c440020250000642e0000256400002e250000bd
:103c5400642e0000256400000d0000000a540000da
:103c640079700000652000006f6600002064000089
:103c74006576000069630000653a00002057000083
:103c84006561000068740000657200002053000044
:103c940074610000746900006f6e0000005700003a
:103ca400494e0000445f00005350000045450000a9
:103cb400443a000020250000640a00000057000078
:103cc400494e0000445f0000444900005245000092
:103cd40043540000494f00004e3a000020250000e4
:103ce400640a0000004900005252000041440000f0
:103cf40049410000544900004f4e00003a200000a2
:103d0400256400000a000000414d00004249000003
:103d1400454e0000545f0000543a00002025000086
:103d2400640a000000410000495200005f4800009e
:103d34003a200000256400000a00000052410000ff
:103d4400494e00003a200000256400000a000000eb
:103d5400415400004d4f00005350000048450000fe
:103d640052490000433a000020250000640a000084
:103d7400000000002cad00006ead00008cad000012
:103d8400fcad000056ae0000a4ad0000a2ae0000e1
:103d94003ead00004aad000056ad000062ad00002b
:103da400b6ad0000c2ad0000cead000016ad0000ff
:103db400daad00000d0a0000444800004350000042
:103dc4002f5000006f77000065720000206500002e
:103dd400766500006e740000206f000063630000cd
:103de4007572000072650000640000004741000025
:103df40054450000574100005934000032000000cf
:103e04000102000003040000050600000f1000007a
:103e14000102000003040000050600000f1000006a
:0c3e24000c000000f4010000f40100009c
:020000040000fa
:103e30000200fa00004f780080f022001040780065
:103e40009e4f50002f00320080f02200104078007a
:103e5000e24f40001300320080f022001040780052
:103e60000080fb008000eb00fe09b900e002b90011
:103e70008401780003014100e30120000300b80041
:103e8000010141008200780022ca220002004000a5
:103e9000e20120000300200041d22200f00c0200c9
:103ea0000000000080f022001e4878001e407800cc
:103eb000e24f4000150032001e80fb008000eb0046
:103ec000fe09b900e002b900840178000301410055
:103ed000e30120000300b8000101410082007800e6
:103ee00022ca220002004000e2012000030020005c
:103ef0008000780040d22200f00c02000000000098
:103f0000030037000000000001003700000000003f
:103f10000080fa00000006000000fa0090f0220085
:103f20009040780080f022001040780080cf500050
:103f30003b00320090f0220010407800e24f400039
:103f40002700320006cc220090f0220010407800ba
:103f50000080fb00cf80de00fe09b900e002b9005e
:103f60008401780003014100e30120000300b80050
:103f700001014100820078007c004000e0804800a0
:103f800022ca2200020040009042780090f02200f5
:103f9000104078000080fb00cf80de00fe09b900f1
:103fa000e002b9008401780003014100e301200030
:103fb0000300b800010141008200780022ca2200fb
:103fc00002004000100078008002b100840220004e
:103fd00013c0b3000601780085407800081207007e
:103fe00080f022009040780090f022000148780094
:103ff00000d42200104178002069810081fd2f004b
:104000008080400000cc22008402200082417800a1
:104010000101780011c0b300f91107000100370059
:10402000000000000080fa00000006000c00fa000a
:10403000d04c210010079800507881000000e0006b
:1040400008003a006095020000000000800078003f
:10405000f07f200080806000004020000080400051
:1040600050788900c2032000030020008000eb008c
:1040700080ce22000c0d0200000000000040eb008a
:10408000004f78006a0037001e40780068ff070084
:104090001e80fb00cf80de00e609b900e002b90017
:1040a0008401780003014100630020000300b80090
:1040b000010141008200780022f129000200400045
:1040c00090409000414798001e80fb00cf80de00aa
:1040d000e609b900e002b90084017800030141005b
:1040e000630020000300b800010141008200780055
:1040f00062004000e080480022f1290002004000f8
:1041000090007800310798001e80fb00cf80de0011
:10411000e609b900e002b90084017800030141001a
:10412000630020000300b800010141008200780014
:1041300064004000e080480022f1290002004000b5
:1041400090007800410798004e4090000080fb00ee
:104150000000e00001003200340037001e02900031
:1041600054079800be0090004e00900080804000f0
:104170001e00900000804000a002b00010079800d0
:104180009e009000c0ff2100808f5000fcff3e0089
:1041900000d42200ce409000014878005e009000dc
:1041a0008002b00020698900216981003e009000f2
:1041b000008040000000e80030698900316981001a
:1041c0004e0090000080400040698900d00020002f
:1041d000d0698900e06981000030a100e0698900b0
:1041e0004dff07001e80fb00cf80de00e609b9000e
:1041f000e002b9008401780003014100630020005f
:104200000300b800010141008200780022f129007a
:10421000020040009040780070ce220001487800f3
:10422000a60b07001e4fe80001003700ffff370014
:104230001e4078000004e00093ff32000080fa0086
:10424000000006000c00fa001007980021079800f3
:104250006247980043079800244f98000040eb0005
:10426000004f7800960037001e407800f0fe0700ef
:10427000d0698100ed0f50008d003a0026ff070045
:1042800070ce2200904078002e48900080cf5000e1
:1042900089003a0080212000206789006e4090004c
:1042a0000004e0000a003a00ce0090008166890018
:1042b000e06981000030a000e06989004000200032
:1042c000d0698900ce009000f1698900760037003e
:1042d00051788100f03f2000808f500004003600ac
:1042e0005178810080382100808f50000200360014
:1042f0000040200050788900507881008066890055
:104300000000e80050788900ce00900071668900b6
:10431000c0cf02000000000090698900a1698900f7
:10432000e06981000040a000e06989006e409000d3
:104330000080fb00e30f50001c003200e30f500030
:1043400003003c00e10f5000570035000300370028
:10435000e40f50002d003200530037001e00900083
:10436000ae009000b0668900c16689006e40900082
:104370000014a2000080fb000000e9004f00de00f6
:10438000004078000080fb00610060004200dd001a
:10439000116781000120a1000100700010678900f1
:1043a0000000eb00d06989003f0037000e80e80074
:1043b000900090000e80e80010007800808040009f
:1043c0004e00900080804000806681000080680080
:1043d000f06989001e009000ae009000b066890070
:1043e000c166890060ce22008040eb000148780061
:1043f000100a200001002000006689001166890073
:1044000020002000d0698900270037001e0090009e
:10441000ae00900000007800a04090008180fb007a
:10442000304090000080fb004800dd0000807000fc
:10443000000178001e009000ae009000000078009f
:104440009080fb00104090000080fb004800dd00e1
:1044500000807000800041004e009000808040008d
:104460008066810000806800f06989001e0090006d
:10447000ae00900000007800a200200003002000a1
:104480008000780060cd2200f00c020000000000e7
:1044900050002000d069890011c0b30020c0b300d3
:1044a00063070700000000001e4078000800370086
:1044b0000000000001003700000000001e4fe8006f
:1044c0001e4078000004e00067ff3200e0cfb30038
:1044d0000080fa00000006000200fa00004f780099
:1044e0001e4078000004e0000200320010c0b3005b
:1044f0000d0037001e4078004dfe0700e169810085
:1045000000002100008060000000e0000500320093
:10451000e069810000c0a100e069890010c0b3001b
:10452000010037000040eb000080fa0000000600a8
:104530000200fa00004f78001e4078000004e000fe
:10454000020032000040eb00090037001e407800f6
:1045500037fe0700d06981006700680000f0a700ff
:104560000000ea000000e9004f00de000040780093
:104570000080fa00000006000200fa00004f7800f8
:104580001e4078000004e00047003a001e4078001a
:1045900027fe07007069810080698900d069810069
:1045a000e50f500017003200e50f500007003e00f5
:1045b000e10f50000f003200e10f500011003900f0
:1045c000e30f500032003e000e003700eb0f5000aa
:1045d0001d003200eb0f500003003e00e70f5000bb
:1045e0002b003e0009003700ee0f5000250032007e
:1045f00027003700c69c020000000000af0a070039
:104600002a003700ad0a07002800370011c0b300a8
:1046100010c1b30006070700906681000000e000ab
:10462000050032005169810060668100808f500072
:10463000f6ff3a0001003700000000008000200073
:10464000d06989001900370011c0b30010c1b30050
:10465000f7060700906681000000e00005003200c8
:104660005169810060668100808f5000f6ff3a003a
:104670000100370000000000c0002000d069890060
:104680000a003700d0002000d069890007003700f9
:104690008040eb0040c1b300e5060700870a070031
:1046a0000000000001003700000000000080fa0058
:1046b000000006000200fa00004f78001e4078005b
:1046c0000004e00008003a001e407800d8fd070012
:1046d000e06981000030a100e06989001e40780097
:1046e000a5ff070001003700000000000080fa006d
:1046f000000006000200fa00004f78001e4078001b
:104700000004e000020032000000eb000c00370063
:104710001e407800c6fd0700fffd0700a200200034
:104720000300200061cd220020d42200f00c020002
:104730000000000070668100606a890020d42200b9
:104740000080fa00000006000200fa00004f780026
:104750001e4078000004e0000b003a001e40780084
:10476000b3fd0700ecfd0700516981006066810020
:10477000808f50000500320011c0b30000c1b300ab
:10478000ab06070001003700000000000080fa00bf
:10479000000006000400fa00204798002e40900018
:1047a0000004e000020032000000eb001d003700b2
:1047b0002e4090009efd0700d0698100004f7800d8
:1047c0001e407800e74f5000050032001e40780080
:1047d000eb4f5000020032000000eb0011003700e8
:1047e0005169810060698100808f500009003900a3
:1047f00031698100206981008080500062698100f8
:104800005069810000005100008040000000e90074
:104810000400370061698100506981000080500008
:104820000000e9000080fa00000006000400fa0021
:1048300020479800314798002e4090000004e00087
:10484000020032000040eb00430037002e40900091
:1048500077fd07002e409000ceff0700000f780084
:104860001e0078000000e00002003a000040eb006b
:10487000390037001e007800e10f500002003a00b6
:104880002e409000b0ff0700e16981000010200079
:10489000008060000000e0000b003a0031698100f8
:1048a00020698100008050000000d1009e0f500060
:1048b000050039002e409000a3ff0700e069810049
:1048c0000080a000e06989006301470000d4220055
:1048d00090407800506981001400200013c0b3009c
:1048e000c70f0700506981000000e8005069890087
:1048f0005169810030698100808f500002003900c9
:1049000020698100506989001e007800e10f500085
:1049100003003a002e4090008bff07000d00370087
:10492000e169810000022000008060000000e000da
:1049300008003a00e06981000050a000e0698900a9
:10494000f2cf020000000000000078007900400073
:10495000b069890010c0b3000080fa0000000600b2
:104960000c00fa0060479800410798005207980031
:104970000000eb00100798006e4090000004e0007b
:10498000020032000000eb005e0037006e40900035
:1049900027fd07006e4090007eff0700200798006b
:1049a0002e0090000000e00004003a006e409000ed
:1049b00065ff07000000eb0052003700ae009000da
:1049c000010f7800ae0090005e009000808f5000d4
:1049d00002003600de009000010f7800e1698100de
:1049e00000102000008060000000e0000c003a0091
:1049f0003169810020698100008050008000d10071
:104a00002e009000808f5000050039006e4090000d
:104a10004dff0700e06981000080a000e069890087
:104a2000506981009e00400030698100808f5000f5
:104a30001400390031698100506981000080500004
:104a4000100798004e01900000d42200904078009a
:104a5000506981001e02900013c0b300680f070068
:104a60001e0090008000eb004e019000000041000d
:104a7000400798001e0090001e0f10002069810062
:104a8000506989004e01900000d4220090407800c7
:104a9000506981001e02780013c0b300580f070050
:104aa000506981001e00400050698900ae009000ee
:104ab0005e009000808f500003003e006e4090002a
:104ac00021ff07000d003700e1698100000220008e
:104ad000008060000000e00008003a00e06981000a
:104ae0000050a000e0698900f2cf02000000000041
:104af0000000780079004000b06989001e00900035
:104b00001e0040000080fa00000006000400fa00c9
:104b1000004f7800110798001e009000240d02003d
:104b20000000000000007800000178009e00900066
:104b30001e4078008aff07008000eb001e019000f5
:104b4000000041000080fa00000006000600fa00a4
:104b5000404798004e4090000004e0000200320000
:104b60000000eb000b0037004e409000b0fc070047
:104b7000316981002069810000805000000fe90048
:104b80004e40900003ff0700100798001e009000a1
:104b90001e0010000080fa00000006000200fa006b
:104ba000004f78001e4078000b0007000000e00076
:104bb000070032001e4078009dfc070070698100ec
:104bc0008069890011c0b30000c1b30098050700d7
:104bd0000080fa00000006000200fa00004f780092
:104be0001e4078000004e000020032000000eb00ec
:104bf000120037001e4078008dfc070071698100ab
:104c000080698100808f5000040039007169810043
:104c100080698100008050000800370041698100f0
:104c20008069810080805000726981003069810054
:104c300000005100008040000000e8000080fa0001
:104c4000000006000600fa0020479800210798009f
:104c50002e409000e0ff0700000f78001e00780053
:104c60000000e00002003a000040eb002c0037009a
:104c70002e4090006efc07002e0090000000e00027
:104c80000900320000d422001041780081698100bf
:104c90002e0090001400200082417800010178006d
:104ca00011c0b300d60e0700806981000000e80043
:104cb000806989008169810040698100808f50008e
:104cc0000200360030698100806989001e0078008a
:104cd000e10f500004003a00e069810000a0a0004c
:104ce000e06989000d003700e169810000022000c1
:104cf000008060000000e00008003a00e0698100e8
:104d00000050a000e0698900f2cf0200000000001e
:104d1000000078001008b000b069890010c0b3002e
:104d20000080fa00000006000a00fa0040479800e0
:104d300031079800420798000000eb00000f780050
:104d40004e409000a4ff0700100798001e0090003e
:104d50000000e00002003a000000eb0053003700c2
:104d60004e40900032fc0700ce0090001e009000e4
:104d7000808f5000020036009e009000410798008e
:104d8000816981004e009000808040004069810070
:104d9000808f50001a0036004169810080698100cf
:104da00000805000000fe8003e0090000000e0008e
:104db0000e00320000d42200104178008169810089
:104dc0003e0090001e0278008241780001017800c8
:104dd00011c0b3008a0e07001e0078008000eb00af
:104de0003e01900000004100300798004e00900006
:104df0001e005000400798003069810080698900da
:104e00003e0090000000e0000900320000d42200c3
:104e100010417800816981003e0090004e029000b0
:104e2000824178000101780011c0b300740e0700c0
:104e3000816981004e0090000080400080698900f7
:104e40004e0090001e004000400798009e00900019
:104e50004e009000808050004e009000808f5000e7
:104e600004003e00e069810000a0a000e069890024
:104e70000d003700e1698100000220000080600021
:104e80000000e00008003a00e06981000050a00046
:104e9000e0698900f2cf0200000000000000780005
:104ea0001008b000b06989004e0090000080fa0040
:104eb000000006000600fa00404798004e409000af
:104ec0000004e000020032000000eb000a0037009e
:104ed0004e409000d6fb0700416981003069810097
:104ee000008f50004e4090003bff070010079800d5
:104ef0001e0090001e0010000080fa000000060056
:104f00000e00fa0060479800410798005207980089
:104f1000630798006e4090000004e00003003a0030
:104f20005e0090000000e00002003a000000eb008c
:104f3000420037006e409000bdfb07006e409000bd
:104f400025ff070010079800ee0090005e0090001b
:104f5000808040001e009000808f500004003600ca
:104f60009e0090006e009000008050005007980056
:104f7000816981006e009000008f400040698100cf
:104f80009e0f5000050031004169810030698100a9
:104f9000008050000080ea001e0f40004069810040
:104fa0001e0050000000e80020079800de0090007e
:104fb0002e009000808f500009003e0000d4220097
:104fc000904078004e0090005e0290008141780091
:104fd0001e01780011c0b300090e0700160037004b
:104fe00000d42200904078004e0090002e029000e5
:104ff000814178001e01780011c0b300000e070047
:10500000de0090002e0090008081500000d422002d
:1050100010417800316981004e0290002e0090000e
:10502000000042000302780082417800010178000c
:1050300011c0b300f20d07005e0090000080fa007e
:10504000000006000600fa0020479800210798009b
:10505000ae019000120020008e0078002e409000db
:10506000a7ff07001e4078000080fa00000006003d
:105070003c00fa0000779800111f9800221f98004a
:10508000331f9800441f9800257f98000e709000f1
:105090000004e000020032000080eb003001370025
:1050a0002e1890000000e00002003a000000eb0023
:1050b0002b0137000e7090005dfb07000e70900012
:1050c000c5fe0700be1890000100500010079800b0
:1050d0009e0090002e189000808f5000020031003a
:1050e0000080eb001e0137004e1890000000e00029
:1050f000060032009e0090004e189000808f5000f5
:1051000002003600ce1890001107980081698100d6
:105110003e189000008040003007980041698100ef
:105120003e009000808f50000700310041698100ef
:1051300030698100008050000080ea00be009000cd
:105140000080400030079800be009000010f7800fa
:10515000416981003e009000008050000000e8009e
:1051600020079800be18900031079800ae189000f4
:10517000610798009e189000710798001e18900013
:1051800090407800114f98001e1890000000e80031
:10519000101f98000040eb00304f98002e789000d0
:1051a0000004e0000c0032009e48900000c6b300ee
:1051b00080cf5000080036009e489000a0c7b30082
:1051c00080cf500004003e009e48900000ceb30007
:1051d00000c04000104f980000c2b300204f98005c
:1051e0002e4890008080fb002e009000808f5000a1
:1051f000020036002e009000204f98002e489000ac
:105200008080fb001e009000808f5000020036005e
:105210001e009000204f98002e4890000081fb0057
:1052200000d422009040780070004700020278000d
:10523000814178001e01780011c0b300700d070095
:105240002e4890000080fb001e0f40002e4890006a
:105250000080fb00ae009000008050002007980006
:105260002e0090000000e00004003a003169810047
:10527000010f78000080eb00200798002e78900046
:105280000004e0006d0032000040eb00004f980089
:10529000650037000e4890000080fb00cf80de00e4
:1052a00070004000ee40780000c6b30080cf500090
:1052b000140036000e4890000080fb00cf80de0016
:1052c00070004000ee407800a0c7b30080cf5000cf
:1052d0000c003e000e4890008081fb000e489000bc
:1052e0000080fb00cf80de0070004000ee407800c0
:1052f00000ceb30000c140006118b900700040004a
:10530000027778000e4890000080fb00cf80de001e
:1053100070004000ee4078001e48900080cf5000a2
:1053200023003a002e1890000000e900201f98008a
:105330002e1890000000e00008003a00be00900027
:105340006e009000808050000e4890000080fb00ae
:10535000008040000000e800810037001e18900027
:1053600090407800114f98001e1890000000e8004f
:10537000101f980010c0b300304f98009e48900056
:1053800000c6b30080cf5000240036009e48900035
:10539000a0c7b30080cf500020003e009e48900080
:1053a00000ceb30000c04000104f98001b00370033
:1053b000ee009000211f98003e4890000004e0009d
:1053c00016003200fe009000111f98001e18900079
:1053d00090407800114f98001e1890000000e800df
:1053e000101f98009e48900000c6b30080cf500068
:1053f000080036009e489000a0c7b30080cf500040
:1054000004003e009e48900000ceb30000c0400063
:10541000104f98000040eb00304f98000e4890006d
:105420000040e800004f98008e4890002e48900001
:1054300080cf500097ff3900380037000040eb0064
:10544000004f9800310037000e4890000080fb00ac
:10545000cf80de0070004000ee4078001e489000d3
:1054600080cf500017003a002e1890000000e9008d
:10547000201f98002e1890000000e00008003a005d
:10548000be0090006e009000808050000e4890009a
:105490000080fb00008040000000e8003000370082
:1054a0001e18900090407800114f98001e18900030
:1054b0000000e800101f980010c0b300304f9800a3
:1054c0000f003700ee009000211f98003e4890002a
:1054d0000004e0000a003200fe009000111f980056
:1054e0001e18900090407800114f98001e189000f0
:1054f0000000e800101f98000040eb00304f9800bb
:105500000e4890000040e800004f98008e48900040
:105510002e48900080cf5000cbff39002e489000dd
:105520000080fb009e009000008050001007980053
:105530009e0090002e189000808f500002003100d5
:105540000080eb00060037002e4890000080fb0032
:10555000be00900000804000300798001eff37001a
:105560000080fa00000006000800fa00004f7800f2
:105570001147980012079800230798006447980085
:105580000e00e800ee4290002e0290009e01900076
:1055900012002000800078001e407800b4fe070052
:1055a0000080fa00000006000a00fa00881f780058
:1055b0000040eb00004f7800670237001e40780083
:1055c0001bfa07000040eb00304798000040eb005a
:1055d000104798000040eb0020479800e1698100e7
:1055e00000202000008060000000e00005003a007c
:1055f000e169810000402000008060000000e000c0
:105600000f003200e0450200000000000004e0004e
:105610000b00320000c1b30030479800e069810000
:105620004a00de00614060000080fb0000f0a7003f
:105630000000ea000000ea004f00de00104798007a
:10564000e169810000022000008060000000e000ad
:1056500009003200b8698100f2cf020000000000aa
:1056600000007800000054000000e00002003c0050
:1056700000c1b30030479800e169810000042000b8
:10568000008060000000e00009003200c86981006d
:10569000f2cf02000000000000007800000054007b
:1056a0000000e00002003c0000c1b3003047980059
:1056b000d0698100eb0f50000b003a00c8698100ef
:1056c000f2cf02000000000000007800000054004b
:1056d0000000e00004003c0010c1b3003047980017
:1056e000c0002000d0698900d0698100e40f50001b
