:020000040000fa
:080000000002040000000000f2
:020000040000fa
:04000800920300005f
:020000040000fa
:04000c00da03000013
:020000040000fa
:0400100040040000a8
:020000040000fa
:04001400b403000031
:020000040000fa
:04001800fc030000e5
:020000040000fa
:04001c001e040000be
:020000040000fa
:040020006204000076
:020000040000fa
:0400240002060000d0
:020000040000fa
:0400280002060000cc
:020000040000fa
:04002c0002060000c8
:020000040000fa
:0400300002060000c4
:020000040000fa
:04003400ea050000d9
:020000040000fa
:0400380002060000bc
:020000040000fa
:04003c0002060000b8
:020000040000fa
:0400400002060000b4
:020000040000fa
:040044009204000022
:020000040000fa
:0400480002060000ac
:020000040000fa
:04004c0002060000a8
:020000040000fa
:0400500002060000a4
:020000040000fa
:0400540002060000a0
:020000040000fa
:04005800020600009c
:020000040000fa
:04005c000206000098
:020000040000fa
:040060000206000094
:020000040000fa
:040064000206000090
:020000040000fa
:04006800020600008c
:020000040000fa
:04006c000206000088
:020000040000fa
:040070000206000084
:020000040000fa
:040074000206000080
:020000040000fa
:04007800020600007c
:020000040000fa
:04007c000206000078
:020000040000fa
:040080000206000074
:020000040000fa
:040084000206000070
:020000040000fa
:04008800020600006c
:020000040000fa
:04008c000206000068
:020000040000fa
:040090000206000064
:020000040000fa
:040094000206000060
:020000040000fa
:04009800020600005c
:020000040000fa
:04009c000206000058
:020000040000fa
:0400a0002a0500002d
:020000040000fa
:0400a400c80400008c
:020000040000fa
:0400a800020600004c
:020000040000fa
:0400ac000206000048
:020000040000fa
:0400b0000206000044
:020000040000fa
:0400b4000206000040
:020000040000fa
:0400b800020600003c
:020000040000fa
:0400bc000206000038
:020000040000fa
:0400c0000206000034
:020000040000fa
:0400c4000206000030
:020000040000fa
:0400c800020600002c
:020000040000fa
:0400cc000206000028
:020000040000fa
:0400d0000206000024
:020000040000fa
:0400d4000206000020
:020000040000fa
:0400d800020600001c
:020000040000fa
:0400dc000206000018
:020000040000fa
:0400e0000206000014
:020000040000fa
:0400e4000206000010
:020000040000fa
:0400e800020600000c
:020000040000fa
:0400ec00cc0500003f
:020000040000fa
:0400f000ae05000059
:020000040000fa
:0400f4000206000000
:020000040000fa
:0400f80002060000fc
:020000040000fa
:0400fc0002060000f8
:020000040000fa
:0401000002060000f3
:020000040000fa
:0401040002060000ef
:020000040000fa
:0401080002060000eb
:020000040000fa
:04010c0002060000e7
:020000040000fa
:0401100002060000e3
:020000040000fa
:0401140002060000df
:020000040000fa
:0401180002060000db
:020000040000fa
:04011c0002060000d7
:020000040000fa
:0401200002060000d3
:020000040000fa
:0401240002060000cf
:020000040000fa
:0401280002060000cb
:020000040000fa
:04012c0002060000c7
:020000040000fa
:04013000980500002e
:020000040000fa
:0401340002060000bf
:020000040000fa
:0401380002060000bb
:020000040000fa
:04013c0002060000b7
:020000040000fa
:0401400002060000b3
:020000040000fa
:0401440002060000af
:020000040000fa
:0401480002060000ab
:020000040000fa
:04014c0002060000a7
:020000040000fa
:0401500002060000a3
:020000040000fa
:04015400020600009f
:020000040000fa
:04015800020600009b
:020000040000fa
:04015c000206000097
:020000040000fa
:040160000206000093
:020000040000fa
:04016400020600008f
:020000040000fa
:04016800020600008b
:020000040000fa
:04016c000206000087
:020000040000fa
:040170000206000083
:020000040000fa
:04017400020600007f
:020000040000fa
:04017800020600007b
:020000040000fa
:04017c000206000077
:020000040000fa
:040180000206000073
:020000040000fa
:04018400020600006f
:020000040000fa
:04018800020600006b
:020000040000fa
:04018c000206000067
:020000040000fa
:040190000206000063
:020000040000fa
:04019400020600005f
:020000040000fa
:04019800020600005b
:020000040000fa
:04019c000206000057
:020000040000fa
:0401a0000206000053
:020000040000fa
:0401a400020600004f
:020000040000fa
:0401a800020600004b
:020000040000fa
:0401ac000206000047
:020000040000fa
:0401b0000206000043
:020000040000fa
:0401b400020600003f
:020000040000fa
:0401b800020600003b
:020000040000fa
:0401bc000206000037
:020000040000fa
:0401c0000206000033
:020000040000fa
:0401c400020600002f
:020000040000fa
:0401c800020600002b
:020000040000fa
:0401cc000206000027
:020000040000fa
:0401d0000206000023
:020000040000fa
:0401d400020600001f
:020000040000fa
:0401d800020600001b
:020000040000fa
:0401dc000206000017
:020000040000fa
:0401e0000206000013
:020000040000fa
:0401e400020600000f
:020000040000fa
:0401e800020600000b
:020000040000fa
:0401ec000206000007
:020000040000fa
:0401f0000206000003
:020000040000fa
:0401f40002060000ff
:020000040000fa
:0401f80002060000fb
:020000040000fa
:0401fc0002060000f7
:020000040000fa
:0402000002060000f2
:020000040000fa
:0402040002060000ee
:020000040000fa
:0402080002060000ea
:020000040000fa
:04020c0002060000e6
:020000040000fa
:0402100002060000e2
:020000040000fa
:0402140002060000de
:020000040000fa
:0402180002060000da
:020000040000fa
:04021c0002060000d6
:020000040000fa
:0402200002060000d2
:020000040000fa
:0402240002060000ce
:020000040000fa
:0402280002060000ca
:020000040000fa
:04022c0002060000c6
:020000040000fa
:0402300002060000c2
:020000040000fa
:0402340002060000be
:020000040000fa
:0402380002060000ba
:020000040000fa
:04023c0002060000b6
:020000040000fa
:0402400002060000b2
:020000040000fa
:0402440002060000ae
:020000040000fa
:0402480002060000aa
:020000040000fa
:04024c0002060000a6
:020000040000fa
:0402500002060000a2
:020000040000fa
:04025400020600009e
:020000040000fa
:04025800020600009a
:020000040000fa
:04025c000206000096
:020000040000fa
:040260000206000092
:020000040000fa
:04026400020600008e
:020000040000fa
:10040000afa823008e7325000e01880000000000b5
:10041000000020000000e000020032000001200087
:100420002002880014000700490207000000e000d5
:1004300003003a00a07f2a000100200002003700dc
:100440000000200001002000810f70000100320038
:100450000f000700000020000000e0000200320052
:1004600000000200000000008cb00200000000004c
:100470000040da000000fe00201120000000e00033
:1004800002003200002020009001880000000600d9
:10049000a1028800800478000000eb001f003700f4
:1004a000e284440054a0b4009905ba00e2844400f8
:1004b00054a0b4009906ba00e284440054a0b400e9
:1004c0000006eb00476fde00fd07b200ae018800ba
:1004d000636ce10003003a000ad801000000eb0061
:1004e0000e003700606ce10008003a00004deb00a0
:1004f0000a05e800020039003420ec000af0a000f0
:100500008b05e900f9ff3e00040037006168e10057
:10051000010032000086eb000b00070019c7ba008b
:100520000e04e0001905ba0003003a000a00e000da
:10053000dbff3a0000000600fe07b200ae028800b2
:100540008a047800f5ff37000cd0a300e20f4d00bd
:100550001c00390089027800354dba000a05e80010
:10056000020039003420ec000af0a0008b05e900fd
:100570000f003200254dba000a05e80002003900dc
:100580003420ec000af0a0008b05e90008003200de
:100590000c00e0000600320015cdba000a05e800a4
:1005a000020039003420ec000af0a0008b05e900bd
:1005b0008984e80054a0b4000b00e000e2ff3a0098
:1005c000000006009902ba00055d78008b05e9007d
:1005d000f7ff3200c82ade00055d78008b05e900d0
:1005e000f3ff32000c00e000f1ff320019ddba0029
:1005f000eeff3700508e0400000000005a8e040009
:1006000000000000468e040000000000168e04006a
:1006100000000000728c040000000000b48c040094
:1006200000000000d28c040000000000428d040095
:10063000000000009c8d040000000000ea8c040013
:1006400000000000e88d040000000000848c04001d
:1006500000000000908c0400000000009c8c04004e
:1006600000000000a88c040000000000fc8c0400c6
:1006700000000000088d040000000000148d04003c
:10068000000000005c8c040000000000208d0400cd
:1006900000000000949e040000000000b0b20400be
:1006a000000000002c9f040000000000a89f040030
:1006b000000000000aa004000000000068a0040080
:1006c0000000000074af0400000000003299040034
:1006d000000000005099040000000000888f040012
:1006e00000000000c08f040000000000a48f040080
:1006f000000000008c9004000000000098910400ad
:100700000000000092a90400000000007c0b04001f
:1007100000000000c01504000000000000000400fc
:10072000000000003600f800809fbe00829fbe00df
:10073000849fbe00869fbe000000fa00c028a9006a
:100740000000eb00e0b20200000000000080fa00b0
:100750004f03be004f02be004f01be004f00be005f
:100760003600f900004006003600f800809fbe0009
:10077000829fbe00849fbe00869fbe000000fa00dc
:10078000eab2020000000000c048a90010002000ea
:10079000e0b20200000000000080fa004f03be003b
:1007a0004f02be004f01be004f00be003600f900f0
:1007b000004006003600f800809fbe00829fbe0009
:1007c000849fbe00869fbe000000fa00c068a9009a
:1007d00020002000e0b20200000000000080fa00cb
:1007e0004f03be004f02be004f01be004f00be00cf
:1007f0003600f900004006003600f800809fbe0079
:10080000829fbe00849fbe00869fbe000000fa004b
:10081000c088a90030002000e0b202000000000003
:100820000080fa004f03be004f02be004f01be0021
:100830004f00be003600f900004006003600f80008
:10084000809fbe00829fbe00849fbe00869fbe0028
:100850000000fa00c0a8a90040002000e0b2020099
:10086000000000000080fa004f03be004f02be00ef
:100870004f01be004f00be003600f90000400600e8
:100880003600f800809fbe00829fbe00849fbe009d
:10089000869fbe000000fa00c608a9007000200074
:1008a000e0b20200000000000080fa004f03be002a
:1008b0004f02be004f01be004f00be003600f900df
:1008c000004006003600f800809fbe00829fbe00f8
:1008d000849fbe00869fbe000000fa002146800073
:1008e00000022000008060000000e00004003200f0
:1008f000c4a8a90090002000e0b20200000000009f
:1009000020468000700060000000e000040032001b
:10091000c488a900a0002000e0b20200000000008e
:10092000ffff37003600f800809fbe00829fbe00a8
:10093000849fbe00869fbe000000fa00c0d28100e6
:100940000000e00002003200c0d28100000001007f
:10095000b0a52300104078008040e800b0a5230037
:1009600001487800a0a5230011c0b3000148780019
:1009700000e8a9000080fa004f03be004f02be004d
:100980004f01be004f00be003600f90000400600d7
:100990003600f800809fbe00829fbe00849fbe008c
:1009a000869fbe000000fa00f0ae81000000e0006b
:1009b00002003200f0ae810000000100319e810093
:1009c000209e8100808f500002003a0023e8a90099
:1009d0001900370003e8a90010003700309e81009d
:1009e000904078008180fb00a11188000000e800a1
:1009f000309e8900319e8100304d2300808f500051
:100a000002003a00903c2300309e8900319e810014
:100a1000209e8100808f50000600320091118000de
:100a200000202000008060000000e000ebff3200aa
:100a300001003700000000000080fa004f03be00f4
:100a40004f02be004f01be004f00be003600f9004d
:100a5000004006003600f800809fbe00829fbe0066
:100a6000849fbe00869fbe000000fa0000af810098
:100a70000000e0000200320000af81000000010031
:100a800003c8a9001f003700009e8100b11180003b
:100a90008140780001487800019e8100c05d2300fc
:100aa000808f500009003200009e81008000e80025
:100ab000109e8100808f500004003200009e810053
:100ac0000000e800009e89000e003700019e8100b2
:100ad000c05d2300808f500007003a00119e810006
:100ae000304d2300808f500003003200304d230032
:100af000009e890003003700803c230011c0b30032
:100b00000148780090118000610060000000e00062
:100b1000ddff3a000080fa004f03be004f02be0026
:100b20004f01be004f00be003600f9000040060035
:100b3000801f78000000fa009011800062006000c1
:100b40000000e000010032003222a9000848a9009c
:100b50000080fa004f007800004006003600f800e0
:100b6000809fbe00829fbe00849fbe00869fbe0005
:100b70000000fa0040d28100000001000080fa006d
:100b80004f03be004f02be004f01be004f00be002b
:100b90003600f900004006003600f800809fbe00d5
:100ba000829fbe00849fbe00869fbe000000fa00a8
:100bb00050d28100000001000080fa004f03be0007
:100bc0004f02be004f01be004f00be003600f900cc
:100bd00000400600809fbe000000fa00b0d18100f6
:100be000c1d1810061004000e0804800b0d189009f
:100bf000c1d189000068a9000080fa004f00be0042
:100c0000004006000040da000000fe000a00fa0082
:100c100011002000b1bf9f00c0bf9f006a80570035
:100c2000e20807004fb897000080fa0000000600b5
:100c30000a00fa0051002000b1bf9f00c0bf9f0012
:100c40006a805700db0807005fb897000080fa0051
:100c500000000600889fbe008004780040d4810018
:100c60000000e00004003a000e0007000084eb00e2
:100c70000000e0000800350048d481000900e000d1
:100c80000500320009004400060007000000e000f3
:100c900001003d000084eb00080078004f04be0016
:100ca00000000600800078000100e00003003a0028
:100cb0000000200040d48900000005000080eb0007
:100cc00002002000828f500002003e0041d48900c3
:100cd0000000eb00000006000a00fa002007980060
:100ce0003107980042079800be0090001107980055
:100cf0000000eb00000f78000e003700000000003d
:100d0000c2990200000000000004a2000004e000fc
:100d1000fbff3a001e009000104078009e009000fb
:100d20008100e8001107980082990200000000008d
:100d30001e0fe8004e0090009e007800808f50004b
:100d4000eeff39004e0090000080fa00000006001f
:100d50000000050003f0a200889fbe008a9fbe002d
:100d60008c1f7800830007008a0033006450e10084
:100d70004f0032006420e1005200320003826c0018
:100d800007003b000905d0000306d000820f540085
:100d90000c065d0002003900020032008901780073
:100da000030678008582550004003d000003fd0025
:100db0008103fd008502ea008b854200840f7200ea
:100dc00002003b0060001000e08018006011b800d5
:100dd0000005eb007a28e1000a00390006007800df
:100de000c75ddd00f707b200878075002d00370072
:100df000828171000a017800610560008180d10064
:100e00000080d3008502e900f9ff3b0006044000a2
:100e10008784480002003b0060041400e0841c004a
:100e20000988a300070032008a8171008281710065
:100e3000610164008904d1000884d3008b05e800b7
:100e4000170037000978a30013003a000b00e000f8
:100e5000130034008b05e9000804440089844c0029
:100e60000a4474000978a3000d003a000b00e0006a
:100e7000070034008b05e9000804440089844c0015
:100e800001003a000b0020000978a300f7ff3200b0
:100e90000001eb0002003700828171000a01780036
:100ea0000e0007000cf0a70001f0a0004200370080
:100eb0006420e10002003a00838f6c00420033009e
:100ec0000801be000200be003b003700f4ff2f0007
:100ed000540137006011b8006d0137008100200017
:100ee000618055000b003d000b00200061fe2f00cb
:100ef0000100e1001d003400828171006101640085
:100f00008904d1000884d3000000e800faff3a0009
:100f100071002000610064000300700002006000a6
:100f20000900320061044400e0844c000988a500f7
:100f3000050032008b05e8006808e10002003a0075
:100f40008904d1000884d300f20f20000258e10088
:100f500005003d00c75ddd00f907b200898075001e
:100f600008007800000006000bf827008b007800ce
:100f7000000005000004be00740107000003be006d
:100f80000405be000200be0070010700844f75001a
:100f9000000006000200be006450e10005003600bb
:100fa0006420e100020036000968a30001003a0055
:100fb0000800be000160a0004f0678004f05be008b
:100fc0004f04be0000000600f0ff2f00f1ff2700d5
:100fd000f9ff37006022b800060220000000d000b0
:100fe0008180d2000482d2008582d2000000a0005d
:100ff0000202520083825a000300310002024200c2
:1010000083824a000000a1000603e900f3ff3a00d2
:1010100000000600889fbe008a9fbe003004420088
:10102000b0844a0030054b0090854b006000b10051
:101030000898be000a90be000440e10005c8e10027
:1010400006d0e10007d8e10002003100680040004e
:101050001008e8004f05be004f04be000000060067
:10106000889fbe008a9fbe00100478009004900004
:1010700020059000b00590000418540005985c000d
:1010800006185d0007985d00110020000440e10093
:1010900005c8e10006d0e10007d8e10001003900f1
:1010a0008000eb00108810004f05be004f04be000a
:1010b000000006001200fa00889fbe008a9fbe0052
:1010c0008c9fbe00e0b79f00f1b79f0082bf9f00da
:1010d00093bf9f000605be000404be000000eb00a5
:1010e000d0b79f00c0b79f00b0b79f00a0b79f00c8
:1010f00090b79f000006eb005fb19700cfb097005c
:10110000820141003fb097000200e00004003d0072
:10111000370007007e805700beff0700030037003e
:10112000330007007e805700cdff0700dfb6970031
:101130000d00e0000c0035006fb29700ffb2970081
:101140000fbb97009fbb97001000200001002000fc
:101150006011b80000027200818272000203730005
:10116000838373001b0007000c06e80001042000c5
:10117000810f5600e0ff3a000d00e00004003d0042
:101180000802be000a03be007e805700a1ff0700d0
:101190005fa897000000e00005003a001fb297002a
:1011a000afb297003fb39700cfb397000900070095
:1011b0006fb09700ffb097000fb997009fb99700e5
:1011c0004f06be004f05be004f04be000080fa006f
:1011d000000006000100070000000600a4b79f0001
:1011e000b5b79f00c6b79f00d7b79f0000000600a5
:1011f0004f09de0082817100b3b79f004f01de000e
:101200008180400082807000a1b79f008fb097005e
:101210004f09de00000040000200700090b79f0000
:101220007fa897004f01de0081804000828070001f
:1012300081b79f000d0007004f3ade00000040001c
:1012400004007000f0af9f00080007000402420095
:1012500085824a0006034b0087834b00dfff0700af
:101260000802be000a03be00000006002fb297006d
:10127000bfb297004fb39700dfb39700000006009e
:10128000881f780018002000881f780089ff070059
:101290008f87e9004f04780000000600801feb00f4
:1012a00084ff07008f87e90000000600889fbe00ca
:1012b0008a9fbe00e00f5000e08f5800e00f5900f9
:1012c000e08f59000c003d006044b8006055b80044
:1012d0000000540081805c0002015d0083815d009c
:1012e000180020001500070008003d001800070046
:1012f0000004eb00050037000004eb000f000700be
:1013000002003d001200070018002000dcff07006b
:101310000800e000060032006022b8006033b80028
:101320000000520081805a0002015b0083815b0053
:101330004f05be004f04be0000000600e00f520043
:10134000e08f5a00e00f5b00e08f5b0000000600ba
:101350006044b8006055b8000402540085825c0007
:1013600006035d0087835d0000000600889fbe00c5
:101370008a9fbe008c1f7800e00f5000e08f58005d
:10138000e00f5900e08f59000d003d006044b800a7
:101390006055b8000000540081805c0002015d00cf
:1013a00083815d001c0020000820e10009a8e10005
:1013b0000ab0e1000bb8e1000d003d000800370065
:1013c0000006eb00e00f5200e08f5a00e00f5b00d8
:1013d000e08f5b0006003d006044b8006055b80037
:1013e0000402540085825c0006035d0087835d0073
:1013f000aaff07000c00e000060032006022b800df
:101400006033b8000000520081805a0002015b0086
:1014100083815b004f0678004f05be004f04be007d
:1014200000000600889fbe008a9fbe00841f7800cf
:10143000d0fe07004f00780011003300f0ff2f00ae
:10144000838f6c0006003b00040565000a00a700be
:101450000800370009f0a60010002000080037003f
:10146000820f5400838f5c000300390010002000bd
:1014700001003e000000200009f0a7000000ea0083
:101480004f05be004f04be000000e0000000060053
:10149000889fbe008a9fbe00008270000402710017
:1014a00004827100260032000004be000200be006b
:1014b0006011b8006b092000950220000182cf0066
:1014c0000a0039000541b1000082cf000700390051
:1014d0000541b1000982cf00040039000541b10087
:1014e0000882cf00010039000541b10005425200d9
:1014f000120032000a003b00828171006101640029
:101500008100d1000080d3008984d3000884d300f7
:101510008b05e8000442e800f7ff3a0007003700b7
:101520000804440089844c00000048008180480081
:101530008b05e9000442e900f9ff3a0067fe070065
:101540004f05be004f04be0000000600c70ade00c3
:10155000f107b200f50fb20008003200e1cf4200ff
:10156000020032000170a00024000500810f70000d
:10157000010032000408050044000500810f7000de
:1015800002003a00140005008502e9000000400056
:1015900081c04800fcff3b000170a0002400050052
:1015a000889fbe000202be008001eb000e003700e3
:1015b000611cb80008014000124378000884400014
:1015c000184178008301e800824f53000400320084
:1015d00010002000080031000080eb0006003700fa
:1015e00061025200e0825a00e00f5200e08f5a0080
:1015f000efff3a000000eb004f04be0000000600c1
:101600000202be008001eb0007003700611bb8003a
:10161000060140000683400016497800610252002e
:10162000e0825a008301e800e00f5200e08f5a0088
:10163000f6ff3a00000006000202be008001eb0047
:1016400005003700030140000149780061025200a3
:10165000e0825a008301e800e00f5200e08f5a0058
:10166000f8ff3a0000000600800078000000eb0060
:10167000008140000000e8001204e000fcff3a0096
:1016800001005100cf80de00000006000002eb00e8
:1016900004003700864a780061015100e08159005a
:1016a0000402e8006123b80086024000e00f510008
:1016b000e08f590002003a008000eb000a0037007a
:1016c00006834000164378000604e000f1ff3a006c
:1016d000f9ff370001824200004aeb00610151002e
:1016e000e08159008100e800e00f5100e08f5900cf
:1016f000f8ff3a0000000600881f78008a9fbe00ad
:1017000000047800010078000205be00880078001f
:101710000202be001200200003002000fe010700ac
:101720008a0f50008b8f5800010032000004eb003c
:10173000080078004f05be004f0478000000060046
:101740000000fa00e88157004fb99700018f23008d
:10175000c0b72000020007000080fa000000060069
:101760006200fa00889fbe008a9fbe0000057800d4
:1017700081047800020478008300780060f92f006b
:101780000f004000e20107008a979f0099979f0091
:101790000000eb00a09f9f001885fb008a04fb005f
:1017a0000a05ea004f55de0050022000808f5400e9
:1017b0000e003200e10f55000c003a00120020002c
:1017c00003002000880078001f9097000f92970078
:1017d0000400010090979f000000e0009700320095
:1017e0002f9897000000e800a09f9f000a04440083
:1017f00050022000808f5400040032000900e000f5
:10180000e5ff3a002f9897008d0037000000eb00ad
:10181000809f9f00f0979f00e0979f00d0979f00c8
:10182000c0979f00b0979f00c09f9f000005eb00ee
:1018300008003700e19c2300810050008100d000a7
:10184000229c2300828040004f9897001100700076
:10185000c09f9f008a044400994578008b00fb00dc
:10186000e09c23009e0107000a05e8000000e0005c
:10187000f0ff3a00a1c2b30081cf55000e003a003c
:10188000bf8897000180e900b08f9f0010007800aa
:10189000b09f9f000000e00005003d000000ea004e
:1018a000b09f9f004f9897000020a000c09f9f000e
:1018b0000904e8000f003700b09f9f006000b800e7
:1018c00006003700f3ff2700830f500002003200ac
:1018d000ea00b900000041008100e80001844400f2
:1018e0001801fb000203b100e90f5100f5ff3600bb
:1018f000b09f9f00e0c2b300984f10000300320079
:101900000080eb00909f9f002000370008007800c7
:10191000a1c2b300d0cf100007003a003f89970062
:101920008280e900b18f9f0091007800919f9f0015
:101930000004e800150037000000eb00909f9f00b6
:101940008000eb0006003700f2ff2700820f5000f6
:1019500002003200ea00b900000042008100e80005
:101960000801e8008001eb0002814000e0814900ad
:10197000124278000402fb000403b100e90f520098
:10198000f1ff3600909f9f00020478009844780091
:101990008900fb00a09b2300510107000000e0002c
:1019a000020032000804e800010037008044eb0028
:1019b000a97f9f0080c6b30080cf540004003a0086
:1019c00098cf14000a003a00664050000600370025
:1019d000c0c6b30080cf540005003a0098cf140071
:1019e00003003a0065404000a07f9f000804e80023
:1019f0001801fb00c3fb2f008f81410061f92f000c
:101a00008f80400080f92f000f0040001000070079
:101a10000000e00009003a00c1fb2f008f80400069
:101a200080f92f000f004000490307000000e0008c
:101a3000020035000804e80057ff37000080eb0083
:101a40004f05be004f04be000080fa0000000600f3
:101a5000889fbe008a9fbe00e4c6b300844f510039
:101a6000d000320010003c006b425200844f510005
:101a70001800320005003c0054c2b300844f5100ee
:101a80000801320084c5b3000f00370044c6b3001c
:101a9000844f51001500320065424200844f5100ce
:101aa00003013a001100370004c7b300844f51000e
:101ab000ef0032005f00350065424200844f510064
:101ac0005c00320063424200844f5100f8003a004b
:101ad000580037001181e90082087800f00090007a
:101ae0008181410092497800f70037002062900020
:101af000c5c6b300854f520008003a009102780035
:101b000064825200840878009402900014027800e5
:101b10004fabde00860378001600370015c7b30010
:101b2000854f520003003a00110478006802540007
:101b300005003700a5c6b300854f520008003a00e3
:101b40009104780068825400840878009402900020
:101b500024039000b40390001402780005003700bd
:101b60001182e9008408780014027800cfa2de0018
:101b7000612bb9000498be000690be00a0609000e2
:101b800088c6b30088cf50000d00320028c6b300cd
:101b900088cf500004003a000402fb00cfa2de0010
:101ba000612bb9000800370048c7b30088cf500048
:101bb000030032006644440088cf500004003a001d
:101bc000cfa2de00612bb9000498be000690be00d3
:101bd000100278009002900020039000b003900063
:101be000f0009000e00f5200e08f5a00e00f5b0021
:101bf000e08f5b0003003d0001824100d5c2b300cd
:101c00000a003700001290000418a30003003200fd
:101c100001824100b5c2b300040037000408a300ec
:101c20005b0032000182410005c2b300054a780022
:101c30005500370020629000c5c6b300854f5200a2
:101c400009003a0011057800640255008408780004
:101c500014047800940490006055b8000802be0097
:101c60000a03be001600370015c7b300854f5200a7
:101c700003003a00910478006882540005003700a0
:101c8000a5c6b300854f520008003a001105780040
:101c900068025500840878009402900024039000a4
:101ca000b403900014027800050037001182e900a7
:101cb00084087800140278008002eb006033b800da
:101cc0000498be000690be00a060900088c6b300d5
:101cd00088cf500003003a008002eb006033b80068
:101ce0000e00370028c6b30088cf500004003a0029
:101cf0000482fb008002eb006033b800070037006d
:101d000048c7b30088cf5000030032006644440047
:101d100088cf500003003a006033b8000498be003a
:101d20000690be00801090000138a3001800320019
:101d3000100278009002900020039000b003900001
:101d4000e00f5200e08f5a00e00f5b00e08f5b0075
:101d50000f00320081c7b300814f510003003200f1
:101d600081c5b300814f510009003a00f000900096
:101d70000182410005c3b300054a78008100e800f4
:101d800001824100024a78008100e8007100980059
:101d9000f00090008181410063009800824078004b
:101da0003e003700a0619000c4c6b3001181e90075
:101db00084cf5100220032000a003c0064425200ed
:101dc00084cf51002500320004c2e80084cf5100c6
:101dd000130032006842520084cf51001e003a00c6
:101de0000a00370044c7b30084cf51001b00320003
:101df0006642420084cf5100110032006942520015
:101e000084cf510014003a000500370082087800a2
:101e10009200780040589000804878002c003700ed
:101e20008208780092007800600a9000cfa2de005d
:101e3000612bb9008498be008690be002400370054
:101e4000820878009200780060099000cf91de004f
:101e50008288be001e0037001181e90082087800e8
:101e60009200780060089000800878001800370021
:101e70001181e9008208780012027800cfa2de000a
:101e8000612bb9000498be000690be00f0009000df
:101e9000818141006300980081c7b300e200070020
:101ea0000b003700f00090008181410005003700f1
:101eb000f0009000818141000204e00001003a003e
:101ec00052c2b300824978008100e8007100980096
:101ed0000000eb004f05be004f04be0000000600ee
:101ee000020037000304e000060032000001780021
:101ef00002007800b041780081cf5100f9ff3a002c
:101f0000010037000001eb0002007800000006002d
:101f10000108780000000600ea874700889fbe009d
:101f20008a9fbe008c9fbe008e1f7800000678003e
:101f30000204be000405be00010778000400be00d4
:101f400030040700d0b79f00e1b79f00e00f5000ba
:101f5000e08f580052003200e00f5400e08f5c0028
:101f600050003200fcb79f000006be00ce0090007b
:101f70006e009000808f5000040039000e00780041
:101f8000610007000000e000330035000040200041
:101f90001e0060000c0032000c01be00a1002000f9
:101fa0007fb0970046000700000278000400e000c0
:101fb00008003200ffb19700618511000a05420058
:101fc000cfd5de00040037000c05be000002eb0098
:101fd000010037000c05be004e0090006e0190001d
:101fe00000015100cf91de008a0f51008b8f590004
:101ff000020031000205be000002eb000a01be0033
:10200000ffb0970084bf9f007dfd07000a065600c1
:102010008b865e004e0090000a004000400798004a
:102020000fba97000400e000040032000e007800b0
:10203000de0207000000e00007003a00e00f560053
:10204000e08f5e00040032007fb097000a0040007d
:10205000f0b79f00c5ff3700008020001e00600021
:10206000020032000e007800d002070000c02000fd
:102070001e00600002003200ce0090006107980050
:102080005fb19700efb197000c0051008d805900af
:102090000801be00cffb07000005be0001003700ad
:1020a0006055b8000a00be004f0778004f06be001a
:1020b0004f05be004f04be00af00b1000000060097
:1020c0000202be008001eb00050037008301e8003a
:1020d00092cf10000a00320061025200e0825a00e2
:1020e0006103b80006834100e0834b0006017800dd
:1020f000e00f5200e08f5a00f4ff3a0000000500a4
:102100000600780000000600889fbe008a1f780045
:1021100000047800c8009000680190000000eb0007
:10212000828f50003d0039001800780022002900fd
:1021300002016000e20f510007003200012024007c
:102140000000e00001003d0001202000008c700034
:102150000080eb0031003700020026000200600022
:10216000820f500009003a0038009000808f500024
:1021700006003900080078008c0207008000780013
:102180000080eb000100e00024003a001805780010
:1021900000c020000000650019003a00a80490006b
:1021a0006002200008004000808f540014003a00b4
:1021b00000202000010020003903070020049800bf
:1021c0000000e00005003a00290498004904980046
:1021d0008904e80039049800080037000a60a0006c
:1021e0000a0c780040049800012020008080400004
:1021f00031049800400c9800500c9800150207001c
:102200002800900050049800380090006004980066
:1022100000002600180c70000000eb004f0578004d
:102220004f04be0000000600fc874700889fbe00e8
:102230008a9fbe008c9fbe008e1f7800000678002b
:1022400080c5b30080cf50000a00320077404000c4
:1022500080cf50000a0032006940400080cf50001b
:102260000b0032009098230080bf9f00ae0020003a
:102270000a0037008297230082bf9f0006003700c4
:102280009398230083bf9f008e0020000300370037
:102290009498230084bf9f000e0120001c02780048
:1022a0009c0290002c039000bc0390000605be0029
:1022b0000404be0040c6b30080cf500003003200cb
:1022c0006540400080cf50000b003a00e00f520004
:1022d000e08f5a00e00f5b00e08f5b0006003d00de
:1022e0006000b8006011b8000404500085845800f4
:1022f0000605590087855900e80f57000400320091
:1023000040002000f00f570048003a00010037005d
:1023100030002000e00f5400e08f5c00e00f5d0013
:10232000e08f5d0004003a00dc0890008d01200081
:102330000100e0000d0032000e01e900cf91de0047
:102340000802be00820064000382620084027800fa
:10235000010278000401be008fba9700028142009a
:1023600012417800f2ef9f007d012000800078008c
:102370008100e900050033008b05d1000a85d300f8
:102380008984d3000884d300f9ff3700089ebe007b
:102390000a96be00190037008d06e9000e01e9001b
:1023a000cf91de000404be0082006200038464005a
:1023b00088047800010478000801be008fb89700f7
:1023c000028140009240780083fd2f008d81410002
:1023d00081f77900000178000201e900050033006f
:1023e0008783d1000683d3008582d3000482d30083
:1023f000f9ff3700049ebe000696be001c0278005e
:102400009c0290002c039000bc039000e00f52004f
:10241000e08f5a00e00f5b00e08f5b009300340018
:102420000d00e000dcff3c00900037002c609000c5
:1024300081c6b300814f50000b00320006003c0003
:102440000004e00008003200e6c05000814f500058
:1024500052003a0004003700c1c6b300814f50005b
:102460004e003a00230037000800e00004003a0064
:102470005c0890008d0120000000e00007003200a1
:10248000110009000e84d8008fb997000180410027
:1024900010407800f0ef9f007d012000110009003e
:1024a0000e84d8000b003700110009000e04d8007c
:1024b0008d06e9008e81b900020454008fb89700a0
:1024c000088440009841780082fd2f000d014100f2
:1024d00083777900000478000800e00002003200f1
:1024e0000d00e000f0ff3c00cfc4de00614db900fc
:1024f00027003700e00f5400e08f5c0004003a0032
:102500005c0890008d0120000000e000080032000f
:102510006171b9000800be00b70207000fba97004a
:102520008000420091407800f1ef9f007d01200083
:102530006171b9000800be00a6fa07000c00370060
:102540006171b9000800be009c0207008d06e90019
:1025500080f1b900020454008fba97000884420049
:102560009841780082fd2f000d01410083777900aa
:102570000004be00e00f5000e08f5800020032005f
:102580000d00e000eeff3c004fcdde008a05780034
:10259000089ebe000a96be0034003700e00f5400cb
:1025a000e08f5c00e00f5d00e08f5d0004003a000a
:1025b0005c0890008d0120000000e0000a0032005d
:1025c0006172b900612bb9000800be000a01be00ab
:1025d00032fb07000fba970080004200914078005c
:1025e000f1ef9f007d0120006172b900612bb900fd
:1025f0000800be000a01be0021fb07000e003700e4
:102600006172b900612bb9000800be000a01be006a
:1026100026fb07008d06e90080f2b900040454008f
:102620008fba9700088442009842780084fd2f00fa
:102630000d02420085777a00009ebe000296be0021
:102640001c0478009c0490002c059000bc059000b0
:10265000e00f5400e08f5c00e00f5d00e08f5d0054
:10266000020034000d00e000e5ff3c00e80f5700d9
:1026700010003a000c1090000038a3000d0032004a
:10268000f78f560006003e0080fd2f000d00400031
:10269000ef40780000c3b30080cf50000500320047
:1026a00002c3b30071fd2f008d8040008d06e9004c
:1026b00082f77800f8801600110e98006c009000e8
:1026c0006109b90084fd2f000f0242008d00420015
:1026d000cbfb07001c089000dc089000810f500025
:1026e00006003d0000805000000e98000c10900085
:1026f0000040a100001698000f0037000100e00024
:102700000d003d008c109000f4806000f08f5000b0
:1027100009003a007c099000fc0090008100510003
:102720000c09900082805000008050004240a900b7
:1027300001003400000e98004f0778004f06be00dd
:102740004f05be004f04be00cf01b10000000600df
:102750000400fa00889fbe008a9fbe008c1f78008c
:102760000004780001067800f80d900078009000d1
:102770008085550008089000808555001808900055
:102780008085550028089000808555003808900005
:102790008085550048089000808555000002220081
:1027a00090bf9f0000032300a0bf9f00081090006f
:1027b0000028a30015003a000b00e00013003400cd
:1027c0000b0578008a047800e20f550001003600fe
:1027d000290020006149b90048029000ee805700ae
:1027e0005800900004000100500498000000e00030
:1027f0008f0032006808900009004000600c9800cb
:10280000090555004240a900eeff3c007800900009
:102810000000e0000d0034006101b90048029000a2
:102820008c007800580090000400010050049800cb
:102830008080eb000000e0007e003200e80890009d
:102840007800900000804000600c9800880c900098
:102850000900e0001100340009057800e28f5400ff
:10286000010036002a0020006151b90048029000a2
:10287000ec805700580090000400010050049800bc
:102880000000e0006a003200680890000a00400082
:10289000600c98008a845400edff370018089000ff
:1028a0000000e0000d0034006101b9004802900012
:1028b000e8009000580090000400010050049800c7
:1028c0008080eb000000e0005a003200e808900031
:1028d0001808900000804000600c9800a80c900040
:1028e0000900e0001100340009057800e28f54006f
:1028f000010036002a0020006151b9004802900012
:10290000ec8057005800900004000100500498002b
:102910000000e00046003200680890000a00400015
:10292000600c98008a845400edff3700380890004e
:102930000000e0000f0034006101b90018089000a9
:10294000e80090008080400048029000580090000d
:1029500004000100500498008080eb000000e000bb
:1029600034003200e80890003808900000804000f1
:10297000600c9800c80c90000900e00011003400c1
:1029800009057800e28f5400010036002a0020007b
:102990006151b90048029000ec8057005800900047
:1029a00004000100500498000000e0002000320004
:1029b000680890000a004000600c98008a84540067
:1029c000edff3700081090008000eb000028a30006
:1029d000180032000b00e000160034008b04780071
:1029e00009057800e28f5400010036002a0020001b
:1029f0006151b90048029000ee80570058009000e5
:102a000004000100500498000000e00008003200bb
:102a1000680890000a004000600c98008a84540006
:102a20004240a900eeff3c008000eb0001003700af
:102a30008080eb00010078004f0678004f05be0053
:102a40004f04be000080fa0000000600005c210078
:102a500091003700881f780068a823001804e00060
:102a600003003a00f9ff070020c0b300004c7800d3
:102a70004f04780000000600889fbe000004780024
:102a80000800780049000700800478000004200056
:102a90001800600002003200280090008b00070040
:102aa0000000eb0020049800384090000004e00093
:102ab000050035000000fb0054f807000000e000ae
:102ac000010032008084eb00181090000000e0004c
:102ad0000800320056f807000000e0000100320054
:102ae0008084eb0018109000780007000000eb00d5
:102af0001014980000082000180060000f00320039
:102b0000e19323000000eb00d10f140005003a0010
:102b10000000400001942300008040000008eb000a
:102b2000030037000000e800e80f5000f6ff3a000d
:102b300008007800650007000e003700000c7800e0
:102b400000c0eb0030449800600220000800400004
:102b5000200498004004980050049800400c98000d
:102b600060049800500c98007004980076004400af
:102b7000000c9800090078004f04be000000060019
:102b8000889fbe0008952300f00454004800780098
:102b90000000e00001003200b7ff0700890f540079
:102ba000faff3a004f04be0000000600889fbe00f6
:102bb0008a1f7800000478000800e0000d003a0049
:102bc000e8932300700544008004eb00580078006f
:102bd0000000e00004003200f4ff07000000e00005
:102be00001003d008084eb008a0f5400f7ff3a009b
:102bf0002500370000002200180060008004eb0070
:102c000021003200a80490000f0037000901510094
:102c1000384090000000fb00890078002ef8070083
:102c20000000e00007003c002800900040049800ed
:102c300060049800500c98001890a0008084eb006d
:102c4000110037008084440048019000828f5400b6
:102c5000eeff3900280090004004980098007800aa
:102c600002c020000281600001003a00380090009c
:102c700001e8a30002003200600498000100370060
:102c8000500c98008004eb00090078004f05780094
:102c90004f04be0000000600010020000100e0001b
:102ca00009003200010080000100e000060032004f
:102cb0008100e9000100880081804000020080005e
:102cc0008100410080087800000006000000e0005c
:102cd000360032006400500010027800900290002c
:102ce000e50f5200e08f5a00300036000408a300c0
:102cf0002e003a00b1d381000100e0000200320052
:102d0000810f50000400310021009800b0d38900e9
:102d10001800370082007800210190000200e000d6
:102d200002003200800f5100faff390011037800d1
:102d30009103900086814000830f50001b003900f2
:102d4000808f510004003a008418430085904b00a6
:102d500001007800070037000200e00003003200a5
:102d600004024000840f5100100039002200980036
:102d7000a0009800a00090000100e0000b003200cd
:102d800010014000828f500008003a0042a7230043
:102d90000009eb001001780090019000311841000b
:102da00021904900a1009000210098000000060039
:102db000889fbe008a9fbe000004be00a1d3810090
:102dc0000100e00002003200010078000f0037002f
:102dd000b1d3810060a7230005003700b10f540074
:102de000a18f5c002b00360064804000a1009000a1
:102df0000100e000f9ff3a0012003700b20f540062
:102e0000a28f5c00230036006400410010017800ae
:102e10000200e000f9ff3a0011017800b1d381000f
:102e200060a7230005003700b10f5400a18f5c009c
:102e30001800360064804000a1009000828f50008e
:102e4000f9ff3a008ad381009bd38100880f550097
:102e5000898f5d00010031000805be000a00be0038
:102e6000460007000000e00006003a00880f550009
:102e7000898f5d00060032008b05d1000a85d300e2
:102e8000f2ff37000a98be0090ff0700cbff370023
:102e90000000eb004f05be004f04be00000006001e
:102ea000889fbe000002be0065004000e080480030
:102eb000000378000600a100810178000601780077
:102ec0000204be008000eb00840f5400858f5c007c
:102ed00027003600e50f5400e08f5c0002003e0042
:102ee00068002000090020000800be00b0ff0700b5
:102ef0008000eb000000e0001d0032009000780030
:102f0000a4ff2f00f5ff2f0031014200a1814a00ec
:102f1000880f5100898f590003003100a1029000f1
:102f20000508780008003700088140000208780092
:102f3000a1019000230198001001780031191400bc
:102f400021911c008888be00100178000000eb0071
:102f50000200e00004003200a20190000300e00043
:102f60000100320064004100a0d38900e4804000e9
:102f7000010078004f04be00000006000001be0002
:102f80008000eb000200e000060034000200780040
:102f900030f7070080007800e18f400001003a0020
:102fa0008000eb00010078000000060000c0da009d
:102fb0000000060000c0da0000000600839f6800e1
:102fc0000100e00002003d0060001000e0801800f9
:102fd0000300e00002003d0060011100e0811900e3
:102fe000fcf707004f00e00002003b00600010000b
:102ff000e080180000000600f6f707000400be009d
:1030000000000600020ab900001bb9000200b80067
:0c30100081004200810043000000060027
:020000040000fa
:10301c000d490000276d000020470000617400007e
:10302c0065770000617900000d000000505200002f
:10303c004f4a00004543000054200000303400008b
:10304c002e3200000d000000446500007665000083
:10305c006c6f0000706d0000656e00007420000045
:10306c006279000020530000455300002d540000ed
:10307c0065630000680d00000048000061720000ec
:10308c006477000061720000652000007665000026
:10309c0072730000696f00006e3a0000203000006f
:1030ac002e300000322e0000323000003230000092
:1030bc003038000031300000200d000000460000c8
:1030cc00697200006d7700006172000065200000dd
:1030dc007665000072730000696f00006e3a0000a4
:1030ec00203400002e3200004d4700003831000023
:1030fc00302d0000332e0000330d0000004d000079
:10310c0079200000495000003a200000256400009e
:10311c002e250000642e0000256400002e250000e2
:10312c00640d0000004e0000756d00006f6600001d
:10313c00496e000074650000726600006163000057
:10314c00653a000020250000640d000000490000d5
:10315c006e7400006572000066610000636500001b
:10316c005f490000505b0000256400005d3a0000e0
:10317c0020250000642e0000256400002e25000090
:10318c00642e0000256400000d000000728c00000d
:10319c00b48c0000d28c0000428d00009c8d00008d
:1031ac00ea8c0000e88d0000848c0000908c0000fc
:1031bc009c8c0000a88c0000fc8c0000088d00008a
:1031cc00148d00005c8c0000208d00000d0a0000a6
:1031dc0044480000435000002f5000006f7700005f
:1031ec006572000020650000766500006e740000ba
:1031fc00206f0000636300007572000072650000b0
:10320c006400000047410000544500005741000095
:10321c0059340000320000000102000003040000d9
:10322c00050600000f1000000c000000f401000067
:04323c00f401000099
:020000040000fa
:103240000200fa00004f7800e0a723001040780049
:103250009e4f50002f003200e0a72300104078005e
:10326000e24f400013003200e0a723001040780036
:103270000080fb008000eb00fe09b900e002b9000d
:103280008401780003014100e30120000300b8003d
:103290000101410082007800c28123000200400049
:1032a000e201200003002000e1892300000b02005e
:1032b00000000000e0a723001e4878001e407800b0
:1032c000e24f4000150032001e80fb008000eb0042
:1032d000fe09b900e002b900840178000301410051
:1032e000e30120000300b8000101410082007800e2
:1032f000c281230002004000e20120000300200000
:1033000080007800e0892300000b0200000000002c
:10331000030037000000000001003700000000003b
:103320000080fa00000006000000fa00f0a7230069
:1033300090407800e0a723001040780080cf500034
:103340003b003200f0a7230010407800e24f40001d
:1033500027003200a6832300f0a723001040780046
:103360000080fb00cf80de00fe09b900e002b9005a
:103370008401780003014100e30120000300b8004c
:1033800001014100820078007c004000e08048009c
:10339000c28123000200400090427800f0a7230081
:1033a000104078000080fb00cf80de00fe09b900ed
:1033b000e002b9008401780003014100e30120002c
:1033c0000300b8000101410082007800c28123009f
:1033d00002004000100078008002b100840220004a
:1033e00013c0b3000601780085407800081207007a
:1033f000e0a7230090407800f0a723000148780060
:10340000a08b230010417800f0c4810081fd2f00c3
:1034100080804000a0832300840220008241780045
:103420000101780011c0b300f91107000100370055
:10343000000000000080fa00000006000c00fa0006
:10344000d04c21001007980000d481000000e0005b
:1034500008003a00747b0200000000008000780041
:10346000f07f20008080600000402000008040004d
:1034700000d48900c2032000030020008000eb007c
:10348000208623001c0b0200000000000040eb001f
:10349000004f78006a0037001e40780068ff070080
:1034a0001e80fb00cf80de00e609b900e002b90013
:1034b0008401780003014100630020000300b8008c
:1034c0000101410082007800a29129000200400021
:1034d00090409000414798001e80fb00cf80de00a6
:1034e000e609b900e002b900840178000301410057
:1034f000630020000300b800010141008200780051
:1035000062004000e0804800a291290002004000d3
:1035100090007800310798001e80fb00cf80de000d
:10352000e609b900e002b900840178000301410016
:10353000630020000300b800010141008200780010
:1035400064004000e0804800a29129000200400091
:1035500090007800410798004e4090000080fb00ea
:103560000000e00001003200340037001e0290002d
:1035700054079800be0090004e00900080804000ec
:103580001e00900000804000a002b00010079800cc
:103590009e009000c0ff2100808f5000fcff3e0085
:1035a000a08b2300ce409000014878005e00900080
:1035b0008002b000f0c48900f1c481003e00900098
:1035c000008040000000e80000c5890001c58100be
:1035d0004e0090000080400010c58900d0002000ff
:1035e000a0c58900b0c581000030a100b0c5890028
:1035f0004dff07001e80fb00cf80de00e609b9000a
:10360000e002b9008401780003014100630020005a
:103610000300b8000101410082007800a291290056
:103620000200400090407800108623000148780096
:10363000a60b07001e4fe80001003700ffff370010
:103640001e4078000004e00093ff32000080fa0082
:10365000000006000c00fa001007980021079800ef
:103660006247980043079800244f98000040eb0001
:10367000004f7800960037001e407800f0fe0700eb
:10368000a0c58100ed0f50008d003a0026ff070015
:1036900010862300904078002e48900080cf500084
:1036a00089003a0080212000f0c289006e4090001d
:1036b0000004e0000a003a00ce00900051c28900e8
:1036c000b0c581000030a000b0c5890040002000d6
:1036d000a0c58900ce009000c1c5890076003700e2
:1036e00001d48100f03f2000808f5000040036009c
:1036f00001d4810080382100808f50000200360004
:103700000040200000d4890000d4810050c289000c
:103710000000e80000d48900ce00900041c289007a
:1037200034aa02000000000060c5890071c589004c
:10373000b0c581000040a000b0c589006e40900077
:103740000080fb00e30f50001c003200e30f50002c
:1037500003003c00e10f5000570035000300370024
:10376000e40f50002d003200530037001e0090007f
:10377000ae00900080c2890091c289006e40900026
:103780000014a2000080fb000000e9004f00de00f2
:10379000004078000080fb00610060004200dd0016
:1037a000e1c281000120a10001007000e0c2890097
:1037b0000000eb00a0c589003f0037000e80e80044
:1037c000900090000e80e80010007800808040009b
:1037d0004e0090008080400050c281000080680050
:1037e000c0c589001e009000ae00900080c2890014
:1037f00091c28900008623008040eb0001487800d8
:10380000100a200001002000d0c18900e1c1890018
:1038100020002000a0c58900270037001e0090006e
:10382000ae00900000007800a04090008180fb0076
:10383000304090000080fb004800dd0000807000f8
:10384000000178001e009000ae009000000078009b
:103850009080fb00104090000080fb004800dd00dd
:1038600000807000800041004e0090008080400089
:1038700050c2810000806800c0c589001e00900011
:10388000ae00900000007800a2002000030020009d
:103890008000780000852300000b0200000000007b
:1038a00050002000a0c5890011c0b30020c0b300a3
:1038b00063070700000000001e4078000800370082
:1038c0000000000001003700000000001e4fe8006b
:1038d0001e4078000004e00067ff3200e0cfb30034
:1038e0000080fa00000006000200fa00004f780095
:1038f0001e4078000004e0000200320010c0b30057
:103900000d0037001e4078004dfe0700b1c5810054
:1039100000002100008060000000e000050032008f
:10392000b0c5810000c0a100b0c5890010c0b300bf
:10393000010037000040eb000080fa0000000600a4
:103940000200fa00004f78001e4078000004e000fa
:10395000020032000040eb00090037001e407800f2
:1039600037fe0700a0c581006700680000f0a700cf
:103970000000ea000000e9004f00de00004078008f
:103980000080fa00000006000200fa00004f7800f4
:103990001e4078000004e00047003a001e40780016
:1039a00027fe070040c5810050c58900a0c58100e1
:1039b000e50f500017003200e50f500007003e00f1
:1039c000e10f50000f003200e10f500011003900ec
:1039d000e30f500032003e000e003700eb0f5000a6
:1039e0001d003200eb0f500003003e00e70f5000b7
:1039f0002b003e0009003700ee0f5000250032007a
:103a000027003700da82020000000000af0a07003a
:103a10002a003700ad0a07002800370011c0b300a4
:103a200010c1b3000607070060c281000000e0007b
:103a30000500320021c5810030c28100808f500016
:103a4000f6ff3a000100370000000000800020006f
:103a5000a0c589001900370011c0b30010c1b30020
:103a6000f706070060c281000000e0000500320098
:103a700021c5810030c28100808f5000f6ff3a00de
:103a80000100370000000000c0002000a0c5890030
:103a90000a003700d0002000a0c5890007003700c9
:103aa0008040eb0040c1b300e5060700870a07002d
:103ab0000000000001003700000000000080fa0054
:103ac000000006000200fa00004f78001e40780057
:103ad0000004e00008003a001e407800d8fd07000e
:103ae000b0c581000030a100b0c589001e4078003b
:103af000a5ff070001003700000000000080fa0069
:103b0000000006000200fa00004f78001e40780016
:103b10000004e000020032000000eb000c0037005f
:103b20001e407800c6fd0700fffd0700a200200030
:103b30000300200001852300c08b2300000b02003e
:103b40000000000040c2810030c68900c08b230005
:103b50000080fa00000006000200fa00004f780022
:103b60001e4078000004e0000b003a001e40780080
:103b7000b3fd0700ecfd070021c5810030c28100c4
:103b8000808f50000500320011c0b30000c1b300a7
:103b9000ab06070001003700000000000080fa00bb
:103ba000000006000400fa00204798002e40900014
:103bb0000004e000020032000000eb001d003700ae
:103bc0002e4090009efd0700a0c58100004f7800a8
:103bd0001e407800e74f5000050032001e4078007c
:103be000eb4f5000020032000000eb0011003700e4
:103bf00021c5810030c58100808f50000900390047
:103c000001c58100f0c481008080500032c5810070
:103c100020c5810000005100008040000000e90044
:103c20000400370031c5810020c5810000805000ac
:103c30000000e9000080fa00000006000400fa001d
:103c400020479800314798002e4090000004e00083
:103c5000020032000040eb00430037002e4090008d
:103c600077fd07002e409000ceff0700000f780080
:103c70001e0078000000e00002003a000040eb0067
:103c8000390037001e007800e10f500002003a00b2
:103c90002e409000b0ff0700b1c581000010200049
:103ca000008060000000e0000b003a0001c58100c8
:103cb000f0c48100008050000000d1009e0f500031
:103cc000050039002e409000a3ff0700b0c5810019
:103cd0000080a000b0c5890063014700a08b2300cd
:103ce0009040780020c581001400200013c0b3006c
:103cf000c70f070020c581000000e80020c589002b
:103d000021c5810000c58100808f5000020039006c
:103d1000f0c4810020c589001e007800e10f50002a
:103d200003003a002e4090008bff07000d00370083
:103d3000b1c5810000022000008060000000e000aa
:103d400008003a00b0c581000050a000b0c589004d
:103d500066aa020000000000000078007900400020
:103d600080c5890010c0b3000080fa000000060082
:103d70000c00fa006047980041079800520798002d
:103d80000000eb00100798006e4090000004e00077
:103d9000020032000000eb005e0037006e40900031
:103da00027fd07006e4090007eff07002007980067
:103db0002e0090000000e00004003a006e409000e9
:103dc00065ff07000000eb0052003700ae009000d6
:103dd000010f7800ae0090005e009000808f5000d0
:103de00002003600de009000010f7800b1c58100ae
:103df00000102000008060000000e0000c003a008d
:103e000001c58100f0c48100008050008000d10015
:103e10002e009000808f5000050039006e40900009
:103e20004dff0700b0c581000080a000b0c589002b
:103e300020c581009e00400000c58100808f500099
:103e40001400390001c5810020c5810000805000a8
:103e5000100798004e019000a08b2300904078003e
:103e600020c581001e02900013c0b300680f070038
:103e70001e0090008000eb004e0190000000410009
:103e8000400798001e0090001e0f1000f0c4810033
:103e900020c589004e019000a08b2300904078003f
:103ea00020c581001e02780013c0b300580f070020
:103eb00020c581001e00400020c58900ae00900092
:103ec0005e009000808f500003003e006e40900026
:103ed00021ff07000d003700b1c58100000220005e
:103ee000008060000000e00008003a00b0c58100da
:103ef0000050a000b0c5890066aa020000000000c2
:103f0000000078007900400080c589001e00900004
:103f10001e0040000080fa00000006000400fa00c5
:103f2000004f7800110798001e009000340b02002b
:103f30000000000000007800000178009e00900062
:103f40001e4078008aff07008000eb001e019000f1
:103f5000000041000080fa00000006000600fa00a0
:103f6000404798004e4090000004e00002003200fc
:103f70000000eb000b0037004e409000b0fc070043
:103f800001c58100f0c4810000805000000fe900ed
:103f90004e40900003ff0700100798001e0090009d
:103fa0001e0010000080fa00000006000200fa0067
:103fb000004f78001e4078000b0007000000e00072
:103fc000070032001e4078009dfc070040c58100bc
:103fd00050c5890011c0b30000c1b30098050700a7
:103fe0000080fa00000006000200fa00004f78008e
:103ff0001e4078000004e000020032000000eb00e8
:10400000120037001e4078008dfc070041c581007a
:1040100050c58100808f50000400390041c58100e7
:1040200050c58100008050000800370011c5810094
:1040300050c581008080500042c5810000c58100cc
:1040400000005100008040000000e8000080fa00fd
:10405000000006000600fa0020479800210798009b
:104060002e409000e0ff0700000f78001e0078004f
:104070000000e00002003a000040eb002c00370096
:104080002e4090006efc07002e0090000000e00023
:1040900009003200a08b23001041780051c5810037
:1040a0002e00900014002000824178000101780069
:1040b00011c0b300d60e070050c581000000e80013
:1040c00050c5890051c5810010c58100808f500006
:1040d0000200360000c5810050c589001e0078002e
:1040e000e10f500004003a00b0c5810000a0a0001c
:1040f000b0c589000d003700b1c581000002200065
:10410000008060000000e00008003a00b0c58100b7
:104110000050a000b0c5890066aa0200000000009f
:10412000000078001008b00080c5890010c0b300fe
:104130000080fa00000006000a00fa0040479800dc
:1041400031079800420798000000eb00000f78004c
:104150004e409000a4ff0700100798001e0090003a
:104160000000e00002003a000000eb0053003700be
:104170004e40900032fc0700ce0090001e009000e0
:10418000808f5000020036009e009000410798008a
:1041900051c581004e0090008080400010c5810014
:1041a000808f50001a00360011c5810050c5810073
:1041b00000805000000fe8003e0090000000e0008a
:1041c0000e003200a08b23001041780051c5810001
:1041d0003e0090001e0278008241780001017800c4
:1041e00011c0b3008a0e07001e0078008000eb00ab
:1041f0003e01900000004100300798004e00900002
:104200001e0050004007980000c5810050c589007d
:104210003e0090000000e00009003200a08b230067
:104220001041780051c581003e0090004e02900080
:10423000824178000101780011c0b300740e0700bc
:1042400051c581004e0090000080400050c589009b
:104250004e0090001e004000400798009e00900015
:104260004e009000808050004e009000808f5000e3
:1042700004003e00b0c5810000a0a000b0c58900c8
:104280000d003700b1c581000002200000806000f1
:104290000000e00008003a00b0c581000050a00016
:1042a000b0c5890066aa0200000000000000780086
:1042b0001008b00080c589004e0090000080fa0010
:1042c000000006000600fa00404798004e409000ab
:1042d0000004e000020032000000eb000a0037009a
:1042e0004e409000d6fb070011c5810000c581003b
:1042f000008f50004e4090003bff070010079800d1
:104300001e0090001e0010000080fa000000060051
:104310000e00fa0060479800410798005207980085
:10432000630798006e4090000004e00003003a002c
:104330005e0090000000e00002003a000000eb0088
:10434000420037006e409000bdfb07006e409000b9
:1043500025ff070010079800ee0090005e00900017
:10436000808040001e009000808f500004003600c6
:104370009e0090006e009000008050005007980052
:1043800051c581006e009000008f400010c5810073
:104390009e0f50000500310011c5810000c581004d
:1043a000008050000080ea001e0f400010c5810010
:1043b0001e0050000000e80020079800de0090007a
:1043c0002e009000808f500009003e00a08b23003b
:1043d000904078004e0090005e029000814178008d
:1043e0001e01780011c0b300090e07001600370047
:1043f000a08b2300904078004e0090002e02900089
:10440000814178001e01780011c0b300000e070042
:10441000de0090002e00900080815000a08b2300d1
:104420001041780001c581004e0290002e009000de
:104430000000420003027800824178000101780008
:1044400011c0b300f20d07005e0090000080fa007a
:10445000000006000600fa00204798002107980097
:10446000ae019000120020008e0078002e409000d7
:10447000a7ff07001e4078000080fa000000060039
:104480003c00fa0000779800111f9800221f980046
:10449000331f9800441f9800257f98000e709000ed
:1044a0000004e000020032000080eb003001370021
:1044b0002e1890000000e00002003a000000eb001f
:1044c0002b0137000e7090005dfb07000e7090000e
:1044d000c5fe0700be1890000100500010079800ac
:1044e0009e0090002e189000808f50000200310036
:1044f0000080eb001e0137004e1890000000e00025
:10450000060032009e0090004e189000808f5000f0
:1045100002003600ce1890001107980051c58100a6
:104520003e189000008040003007980011c58100bf
:104530003e009000808f50000700310011c58100bf
:1045400000c58100008050000080ea00be0090009d
:104550000080400030079800be009000010f7800f6
:1045600011c581003e009000008050000000e8006e
:1045700020079800be18900031079800ae189000f0
:10458000610798009e189000710798001e1890000f
:1045900090407800114f98001e1890000000e8002d
:1045a000101f98000040eb00304f98002e789000cc
:1045b0000004e0000c0032009e48900000c6b300ea
:1045c00080cf5000080036009e489000a0c7b3007e
:1045d00080cf500004003e009e48900000ceb30003
:1045e00000c04000104f980000c2b300204f980058
:1045f0002e4890008080fb002e009000808f50009d
:10460000020036002e009000204f98002e489000a7
:104610008080fb001e009000808f5000020036005a
:104620001e009000204f98002e4890000081fb0053
:10463000a08b2300904078007000470002027800b1
:10464000814178001e01780011c0b300700d070091
:104650002e4890000080fb001e0f40002e48900066
:104660000080fb00ae009000008050002007980002
:104670002e0090000000e00004003a0001c5810017
:10468000010f78000080eb00200798002e78900042
:104690000004e0006d0032000040eb00004f980085
:1046a000650037000e4890000080fb00cf80de00e0
:1046b00070004000ee40780000c6b30080cf50008c
:1046c000140036000e4890000080fb00cf80de0012
:1046d00070004000ee407800a0c7b30080cf5000cb
:1046e0000c003e000e4890008081fb000e489000b8
:1046f0000080fb00cf80de0070004000ee407800bc
:1047000000ceb30000c140006118b9007000400045
:10471000027778000e4890000080fb00cf80de001a
:1047200070004000ee4078001e48900080cf50009e
:1047300023003a002e1890000000e900201f980086
:104740002e1890000000e00008003a00be00900023
:104750006e009000808050000e4890000080fb00aa
:10476000008040000000e800810037001e18900023
:1047700090407800114f98001e1890000000e8004b
:10478000101f980010c0b300304f98009e48900052
:1047900000c6b30080cf5000240036009e48900031
:1047a000a0c7b30080cf500020003e009e4890007c
:1047b00000ceb30000c04000104f98001b0037002f
:1047c000ee009000211f98003e4890000004e00099
:1047d00016003200fe009000111f98001e18900075
:1047e00090407800114f98001e1890000000e800db
:1047f000101f98009e48900000c6b30080cf500064
:10480000080036009e489000a0c7b30080cf50003b
:1048100004003e009e48900000ceb30000c040005f
:10482000104f98000040eb00304f98000e48900069
:104830000040e800004f98008e4890002e489000fd
:1048400080cf500097ff3900380037000040eb0060
:10485000004f9800310037000e4890000080fb00a8
:10486000cf80de0070004000ee4078001e489000cf
:1048700080cf500017003a002e1890000000e90089
:10488000201f98002e1890000000e00008003a0059
:10489000be0090006e009000808050000e48900096
:1048a0000080fb00008040000000e800300037007e
:1048b0001e18900090407800114f98001e1890002c
:1048c0000000e800101f980010c0b300304f98009f
:1048d0000f003700ee009000211f98003e48900026
:1048e0000004e0000a003200fe009000111f980052
:1048f0001e18900090407800114f98001e189000ec
:104900000000e800101f98000040eb00304f9800b6
:104910000e4890000040e800004f98008e4890003c
:104920002e48900080cf5000cbff39002e489000d9
:104930000080fb009e00900000805000100798004f
:104940009e0090002e189000808f500002003100d1
:104950000080eb00060037002e4890000080fb002e
:10496000be00900000804000300798001eff370016
:104970000080fa00000006000800fa00004f7800ee
:104980001147980012079800230798006447980081
:104990000e00e800ee4290002e0290009e01900072
:1049a00012002000800078001e407800b4fe07004e
:1049b0000080fa00000006000a00fa00881f780054
:1049c0000040eb00004f7800670237001e4078007f
:1049d0001bfa07000040eb00304798000040eb0056
:1049e000104798000040eb0020479800b1c58100b7
:1049f00000202000008060000000e00005003a0078
:104a0000b1c5810000402000008060000000e0008f
:104a10000f00320088510200000000000004e00096
:104a20000b00320000c1b30030479800b0c58100d0
:104a30004a00de00614060000080fb0000f0a7003b
:104a40000000ea000000ea004f00de001047980076
:104a5000b1c5810000022000008060000000e0007d
:104a60000900320088c5810066aa0200000000002b
:104a700000007800000054000000e00002003c004c
:104a800000c1b30030479800b1c581000004200088
:104a9000008060000000e0000900320098c581003d
:104aa00066aa020000000000000078000000540028
:104ab0000000e00002003c0000c1b3003047980055
:104ac000a0c58100eb0f50000b003a0098c5810093
:104ad00066aa0200000000000000780000005400f8
:104ae0000000e00004003c0010c1b3003047980013
:104af000c0002000a0c58900a0c58100e40f5000bf
:104b000097003a000000eb00200798008f00370064
:104b10002e0090008000eb00f409b900e002b9001b
:104b20008401780003014100430120000300b80024
:104b3000010141008200780070004000e0804800e0
:104b40002286230002004000100078000000e000f0
:104b5000820032002e0090008000eb00f409b900c2
:104b6000e002b90084017800030141004301200004
:104b70000300b8000101410082007800700040008d
:104b8000e080480022862300020040009000780068
:104b9000c0c58100808f500069003a00e2f907002b
:104ba0002e0090008000eb00f409b900e002b9008b
:104bb0008401780003014100430120000300b80094
:104bc000010141008200780022862300020040009b
:104bd000a200200003002000800078000085230050
:104be000000b0200000000002e0090008000eb008f
:104bf000f409b900e002b900840178000301410022
:104c0000430120000300b800010141008200780048
:104c10006a004000e0804800228623000200400035
:104c20001000780040c289002e0090008000eb0048
:104c3000f409b900e002b9008401780003014100e1
:104c4000430120000300b800010141008200780008
:104c50006c004000e08048002286230002004000f3
:104c6000900090001000780061004000e080480053
:104c700010c2890021c2890091c2810080c28100d6
:104c80008080400040c281008080400050c281008e
:104c900000806800c0c5890020c1b300304798007b
:104ca00060002000a0c58900ae009000c0fe2f006b
:104cb0008088b90083022000808141002e0090008e
:104cc0008000eb0061004000e0804800f409b9007a
:104cd000e002b90004014100440120000400b800d2
:104ce000010141008200780022862300020040007a
:104cf000800278002e0090008000eb00f409b900db
:104d0000e002b90004014100440120000400b800a1
:104d10000101410082007800228623000200400049
:104d20000302780013c0b3000501780011c0b3007e
:104d3000b70b07000000eb00d0c489000800370063
:104d40002e0090000000e800200798002e00900040
:104d5000e20f50006eff3600010037000000000037
:104d60003e4090000004e000090032001e40900028
:104d70000004e000020032000040eb0001003700b8
:104d800010c0b300804078003e4090002c02070025
:104d9000b0c58100700060000000e0002d003a0006
:104da000a0c58100e70f500067013a0034aa020055
:104db000000000000001be0060c5810071c58100d7
:104dc0000000510081805900e00f5000e08f580032
:104dd0005f013500b0c5810067006000e60f50003c
:104de0000e003a00b0c581004300de006140600063
:104df000304798001e407800e3fa07001e40780014
:104e0000e1fa07003e4090000004e00052013a0041
:104e1000e0002000a0c589005201370042f90700d8
:104e200021c0b30000c1b3000502070034aa02008c
:104e3000000000000001be00a02424009101200019
:104e4000020040008380480060c5890071c5890068
:104e50004401370034aa0200000000000001be0037
:104e600060c5810071c5810000005100818059003a
:104e7000e00f5000e08f5800390135002af9070093
:104e8000a0c581008000eb00c200200003002000cc
:104e9000820f5000838f5800e7003e00000601009b
:104ea0000c003700230037004d0037005600370054
:104eb000e30037007e0037008d003700a100370087
:104ec000ae003700bb003700bf0037009d00370041
:104ed000cb003700bc820200000000000004e000ac
:104ee000d900320010002000a0c58900e0c2810076
:104ef000640060000000e0000700320080c2810012
:104f000091c281000000780011c0b3001683020036
:104f100000000000d300370080c2810091c28100f0
:104f20000000780011c0b3001683020000000000ea
:104f3000cc003700660047005483020000000000e8
:104f40000004e000c2003200da820200000000002b
:104f50000004e000160032003e009000ce009000f9
:104f600080c2890091c2890020002000a0c589006c
:104f700091c2810080c281008080400040c28100d7
:104f80008080400050c2810000806800c0c5890058
:104f9000008623008040eb0001487800100a2000c2
:104fa00001002000d0c18900e1c18900ad003700b7
:104fb00034aa0200000000000001be00a02424006a
:104fc00091012000020040008380480060c58900f4
:104fd00071c589000000eb00a0c58900a100370061
:104fe00066aa0200000000000000780080c5890069
:104ff000008523004e9702000000000030002000d2
:10500000a0c5890097003700418523000085230053
:1050100004980200000000000004a2000004e00068
:105020001c00320066aa0200000000008000780028
:1050300080c5810000815000d0c18100e1c18100a4
:1050400000007800800f51008300360000862300a6
:1050500010407800e54f50000b003e000086230012
:10506000104078008040e800008623000148780066
:10507000d0c18100e1c18100000040008180480072
:10508000d0c18900e1c1890020002000a0c58900ad
:105090007400370020c0b300304798000040eb0098
:1050a0001047980050002000a0c589006d0037000f
:1050b00020c0b3003047980010c0b30010479800dc
:1050c0000086230010407800e34f50006400360053
:1050d0000086230041c0b3000148780000a12600eb
:1050e00081022000d0c18900e1c189005d00370044
:1050f0000086230010407800e14f500005003e007c
:1051000020c1b3003047980010c0b300104798008a
:1051100054003700b0c58100680060000000e00066
:105120000500320040c1b3003047980010c0b30002
:10513000204798004b00370020c0b300304798004c
:10514000480037000086230010407800e44f5000ec
:1051500005003e0000c1b3003047980010c0b30006
:10516000104798003f00370080002000a0c589004c
:1051700010c1b300304798003a0037000086230082
:1051800010407800e44f500005003e0010c1b3000d
:105190003047980010c0b300104798003100370026
:1051a00040c1b3003047980010c0b30020479800ba
:1051b0002c00370040c1b3003047980010c0b30046
:1051c0002047980027003700008623001040780011
:1051d000e44f500005003e0000c1b3003047980086
:1051e00010c0b300104798001e00370040c1b30044
:1051f0003047980010c0b3002047980019003700ce
:105200000086230010407800e44f500005003e0067
:1052100010c1b3003047980010c0b3001047980089
:105220001000370040c1b3003047980010c0b300f1
:10523000204798000b0037000000000009003700ed
:1052400000000000070037000000000005003700e4
:1052500000000000030037000000000001003700dc
:10526000000000003e4090000004e00031003200e9
:105270001e4090000004e0002b0032000086230056
:10528000104078008040e800008623000148780044
:10529000d0c18100e1c18100000040008180480050
:1052a000d0c18900e1c1890031c2810030c58100cf
:1052b000008050002007980031c2810030c5810075
:1052c000808f50000600310001c58100f0c48100cc
:1052d00000805000ae009000008040002007980041
:1052e000f2c1810003c281002e0090008000eb001b
:1052f0000000510081805900f0c1890001c289007d
:1053000061c281002e0090000080400060c28900d0
:1053100030c5810030c289008040eb003e409000e3
:10532000c70007000300370011c0b3003e409000e3
:10533000c30007002e4090000004e0000900320086
:105340006204070007003700000000000500370076
:1053500000000000030037000000000001003700db
:10536000000000001e4fe8001e4078000004e0002e
:1053700096fd32000000eb00200798005100370036
:105380002e0090008000eb00f409b900e002b900a3
:105390008401780003014100430120000300b800ac
:1053a000010141008200780070004000e080480068
:1053b0002286230002004000100078000000e00078
:1053c0004400320066aa020000000000800178005c
:1053d0002e0090008000eb00f409b900e002b90053
:1053e00004014100440120000400b8000101410013
:1053f0008200780072004000e0804800228623008e
:1054000002004000100078008080510030792000b8
:10541000808f500028003600ae009000c0fe2f00a4
:105420008088b90083022000808141002e00900016
:105430008000eb0061004000e0804800f409b90002
:10544000e002b90004014100440120000400b8005a
:105450000101410082007800228623000200400002
:10546000800278002e0090008000eb00f409b90063
:10547000e002b90004014100440120000400b8002a
:1054800001014100820078002286230002004000d2
:105490000302780013c0b3000501780011c0b30007
:1054a000db0907000000eb00d0c489002e0090004b
:1054b0000000e900200798002e0090000000e8009e
:1054c000200798002e009000e20f5000acff36003d
:1054d00001003700000000004f0478000080fa004f
:1054e000000006002c00fa003017980041179800c1
:1054f000521798003e1190009281fb0012429000da
:105500000482fb004822dd008481710003007800e2
:10551000a24190008381fb00324190000281fb0098
:105520004811dd000281710082007800300f980080
:10553000410f98004e1090001001780090019000eb
:10554000520f9800630f98000040eb00605f9800d6
:1055500060c0b300705f9800de11900003179800e0
:105560000e1090004a800200000000000017980012
:1055700076004700c1002000c48002000000000047
:105580000080ea00101798005e1090009e550200ff
:1055900000000000201798009e1090002e10900030
:1055a000808f500004003200a05102000000000073
:1055b00010c0b300200037000000eb0022a602005c
:1055c000000000000e80e800410120008c5802001d
:1055d000000000000e80e8008a0307007e009000b3
:1055e0004400de006f406000804078002000200012
:1055f0000008dd00744f50001e80fb00de1090009c
:105600000080500074005000501798000e80e80091
:10561000be1090000a0207000004e0000300320000
:105620000e80e800de10900067040700a051020021
:105630000000000010c0b3000080fa000000060067
:105640002a00fa00006f9800116f980036f70700e3
:105650000e6890000080fb00610060000040780050
:105660000004e00006003200b0c5810000b0a000d8
:10567000b0c589000e6890000004a100006f98007a
:10568000b0c581000050a100b0c58900b0c581003f
:105690000060a100b0c58900b0c581000070a10004
:1056a000b0c58900b0c581000090a100b0c58900d7
:1056b000b0c5810000a0a100b0c58900b0c58100bf
:1056c0000080a100b0c589000000000088510200e0
:1056d000000000000004a2000004e000fbff3a000c
:1056e0000e6890000080fb00660060000000e00093
